:020000040800F2
:10000000F0BC00201D0300083B0300083D0300086E
:100010003F030008410300084303000800000000FC
:100020000000000000000000000000004503000880
:100030004703000800000000490300084B030008C4
:100040004D0300084D0300084D0300084D03000850
:100050004D0300084D0300084D0300084D03000840
:100060004D0300084D0300084D0300084D03000830
:100070004D0300084D0300084D0300084D03000820
:100080004D0300084D0300084D0300084D03000810
:100090004D0300084D0300084D0300084D03000800
:1000A0004D0300084D0300084D0300084D030008F0
:1000B0004D0300084D0300084D0300084D030008E0
:1000C0004D0300084D0300084D0300084D030008D0
:1000D0004D0300084D0300084D0300084D030008C0
:1000E0004D0300084D0300084D0300084D030008B0
:1000F0004D0300084D0300084D0300084D030008A0
:100100004D0300084D0300084D0300084D0300088F
:100110004D0300084D0300084D0300084D0300087F
:100120004D0300084D0300084D0300084D0300086F
:100130004D0300084D0300084D0300084D0300085F
:100140004D0300084D0300084D03000875400008EA
:100150004D0300084D0300084D0300084D0300083F
:100160004D0300084D0300084D0300084D0300082F
:100170004D030008854000084D0300084D030008AA
:100180004D0300084D03000800F002F800F0B6F837
:100190000AA090E8000C82448344AAF10107DA45E2
:1001A00001D100F0ABF8AFF2090EBAE80F0013F07E
:1001B000010F18BFFB1A43F001031847E4BD00000C
:1001C00004BE000010F8013B0A4413F0030408BF0A
:1001D00010F8014B1D1108BF10F8015B641E05D01B
:1001E00010F8016B641E01F8016BF9D1002D15D0D8
:1001F00010F8014B03F00C030C2BA1EB04040ABF15
:1002000010F8013BA4EB8314A4EB032405F10103D4
:1002100014F8016B5B1E01F8016BF9D5914238BFF0
:1002200010F8013BD1D3704700230024002500269D
:10023000103A28BF78C1FBD8520728BF30C148BF49
:100240000B6070476E2900F0AA83702900F08B8143
:1002500066290BF0C88265290BF0C58267290BF06F
:10026000C28261290BF0C18203681B0A28BF41F0DA
:100270008001692900F0FC80642900F0F98075296B
:1002800000F0F6806F2901F01C80782900F057817A
:10029000E92900F0B787E42900F0B487F52900F0D8
:1002A000B187EF2901F01980F82900F05681036821
:1002B000DB0928BF41F08001632900F038877329EA
:1002C00000F03D87E32901F0A780F32901F0AC801D
:1002D000002070471FB50BF07CFA01F009F804000C
:1002E000002000210AF014FF401C60600020002163
:1002F0000AF0F8FEE0601FBD10B510BD01F02EF948
:100300001146FFF7E7FF06F039FF01F055F903B496
:10031000FFF7F2FF03BC01F099F900000F48104904
:10032000026800608A4203D00E4880470E480047AA
:100330000E48D0F800D040680047FEE7FEE7FEE731
:10034000FEE7FEE7FEE7FEE7FEE7FEE7FEE700006A
:1003500007480849084A094B70470000F01F002071
:10036000EFBEADDEF5480008890100080000FF1F60
:10037000F0AB0020F0BC0020F0AC0020F0AC00207E
:100380001CB50C46064B7B4469460090204600F0A5
:10039000ACFE04460020694600F0BAFE20461CBDB3
:1003A000870D00000FB41CB5084B06AA7B446946B4
:1003B0000090059800F099FE04460020694600F080
:1003C000A7FE20461CBC5DF814FB0000610D000078
:1003D00070B5044685690068C10601D5302600E085
:1003E0002026C00707D070BDD4E9012130469047D0
:1003F000206A401C20626D1EF6D570BD70B50446A3
:1004000085690078C00707D170BDD4E9012120209B
:100410009047206A401C20626D1EF6D570BD70B5F5
:100420000C460546012A05D02878800600D5EA69E1
:10043000002302E0012305E05B1C934202D2E05C52
:100440000028F9D1A869E618C01AA861286A1844DA
:1004500028622846FFF7BCFF04E0D5E9012114F823
:10046000010B9047B442F8D32846FFF7C7FF70BD91
:100470002DE9F0410646002410687529314616A57D
:1004800010D000F021FA002802DA404213A507E05C
:1004900031688A0701D512A502E0490704D511A5E4
:1004A000012401E000F019FA00210A2206F12407D4
:1004B00009E0B0FBF2FCB0FBF2F302FB1C003030B1
:1004C00078541846491C0028F3D123462A46304662
:1004D000BDE8F04100F00ABA000000002D00000065
:1004E0002B00000020000000F0B40D460188090533
:1004F00002D5214C7C4402E01F4C7C440E34002188
:1005000000F1240608E002F00F071209E75D42EA55
:1005100003721B097754491C52EA0307F3D102788E
:100520000023120704D5702D06D009B1022311341F
:100530002246F0BC00F0DAB901231034F8E770B5B8
:1005400004460D462146106800F0C7F902462946C8
:100550002046BDE870400023C6E7D21D22F0070305
:10056000D3E90023C0E70368126843F02003036067
:100570000823C3610023B7E770B900002DE9F05FDD
:10058000894604464FF0000ADFF874B1FB44C0F816
:1005900020A02046E1688847002874D0252806D08E
:1005A000D4E901219047206A401C2062F1E700262F
:1005B0005F462046E16888472028054607DB312D45
:1005C00005D2781910F8200C08B10643F1E7B007FE
:1005D00001D526F00406C4F81CA00027C4F818A012
:1005E0002A2D09D0284605F0E6F838B304EB870831
:1005F000303DC8F8185019E059F8041B204604EBA8
:1006000087029161E1688847012F054618D1E069AA
:10061000002820DA26F020061DE0D8F8180000EBAC
:10062000800005EB40003038C8F818002046E1682B
:100630008847054605F0BFF80028EED1012F0AD003
:100640002E2D08D12046E16888477F1C0546022FE1
:1006500046F02006C4DBA069002803DA404246F0D9
:100660000106A061F00701D026F010066C2D0BD01A
:10067000682D09D04C2D39D06A2D35D0742D35D048
:100680007A2D33D016E038E0E1682F4620468847BF
:10069000B842054609D16C2F26D04FF48060E1683E
:1006A000064320468847054604E06C2F1AD04FF4D5
:1006B000807006430DB3A5F14100192802D82035FA
:1006C00046F400664A462946204626604E46FFF715
:1006D000B9FD80B101280BD0F61D26F0070000F10E
:1006E000080956E74020E4E78020D8E70020D6E755
:1006F00006F104094DE7284652E7206ABDE8F09F5D
:1007000000B9000010B5431C02E010F8011B71B1E4
:100710008107FAD14FF0013202C88C1A8C4314EAD7
:10072000C211F9D0C01A0A0603D0C01E10BDC01AEB
:1007300010BD0A0401D0801E10BD0902FCD0401E6D
:1007400010BD032A40F2308010F0030C00F0158039
:1007500011F8013BBCF1020F624498BF11F801CBC4
:1007600000F8013B38BF11F8013BA2F1040298BF29
:1007700000F801CB38BF00F8013B11F0030300F093
:100780002580083AC0F0088051F8043B083A51F837
:1007900004CBA0E80810F5E7121D5CBF51F8043B3C
:1007A00040F8043BAFF30080D20724BF11F8013BAF
:1007B00011F801CB48BF11F8012B24BF00F8013B11
:1007C00000F801CB48BF00F8012B704710B5203A64
:1007D000C0F00B80B1E81850203AA0E81850B1E8FA
:1007E0001850A0E81850BFF4F5AF5FEA027C24BFB0
:1007F000B1E81850A0E8185044BF18C918C0BDE8A7
:1008000010405FEA827C24BF51F8043B40F8043B6F
:1008100008BF7047D20728BF31F8023B48BF11F824
:10082000012B28BF20F8023B48BF00F8012B70477E
:100830004FF000020429C0F0128010F0030C00F009
:100840001B80CCF1040CBCF1020F18BF00F8012B87
:10085000A8BF20F8022BA1EB0C0100F00DB85FEA55
:10086000C17C24BF00F8012B00F8012B48BF00F821
:10087000012B70474FF0000200B513469446964690
:10088000203922BFA0E80C50A0E80C50B1F12001A3
:10089000BFF4F7AF090728BFA0E80C5048BF0CC051
:1008A0005DF804EB890028BF40F8042B08BF7047AF
:1008B00048BF20F8022B11F0804F18BF00F8012B21
:1008C000704770477047704709684A0501D540B2C4
:1008D0007047C905FCD500B2704709684A0501D5C3
:1008E000C0B27047C905FCD580B270472DE9F0470A
:1008F0000D4699469246044600F124080168880690
:1009000004D5E06921F01001216000E00120A84237
:1009100001DD471B00E00027A1697A1902EB0900FD
:10092000081AA0612078C00602D42046FFF750FDC7
:10093000002608E0D4E901211AF806009047206A51
:10094000401C761C20624E45F4DB2078C0060AD598
:100950002046FFF73DFD06E0D4E901213020904715
:10096000206A401C2062381EA7F10107F4DC07E072
:10097000D4E9012118F805009047206A401C206244
:10098000281EA5F10105F3DC2046FFF737FD20788E
:10099000000602D50220BDE8F0870120FBE71168C0
:1009A0000268006A530501D508700AE0D30501D535
:1009B000088006E0130603D5C217C1E9000200E073
:1009C00008600120704770472DE9FF4F0C461E4616
:1009D0004FF0FF378BB0D2E90001DDF860800A905C
:1009E0008A46C1F30A5505B93D46002108464FF035
:1009F0000000BAF1000F00F4400005DA00EB8000BF
:100A00004FF4400101EA50004FEA9059B9F1010F4B
:100A100000DDB9460A9850EA4A000ED044F610505C
:100A2000A5F2FF3545432F14B8F1000F1ED07542D3
:100A3000291E1EDDC9F100021CE0B8F1010F4FF0C4
:100A4000000001D0302103E0F24305E02154401CB6
:100A5000B042FBDB30460022002121540B99C1F843
:100A60000880C1E900200FB0BDE8F08FBD1B6D1CF0
:100A7000DEE74A4600DA694206A800F0D9FC06AB78
:100A800093E8070003AB83E8070050460A9900F09B
:100A9000E4FD8DE80700A0F500501F380090039892
:100AA000002D0ADD42F21F014A460844002303A933
:100AB0000390684601F04DF809E0A0F500504A4661
:100AC0001F38002303A90390684601F057F88DE80A
:100AD00007000004000C03D04FF0FF30410800E095
:100AE0001046B8F1000F03D00022009215461EE018
:100AF000751E05D400F000FC303262556D1EF9D52C
:100B0000B3460122084302D000227F1C04E0207873
:100B1000302801D100227F1E002A099784D01DE0D1
:100B2000112D07DA00F0E8FB303262556D1C50EAF7
:100B30000102F5D1084302D00098C8B10EE00021AF
:100B4000681E05E0235C625C63542254401E491C0D
:100B50008142F7DBAB46A81B401E0990002004F839
:100B60000B000B98099AC0F80880C0E9002B7AE7BF
:100B700011264FF0000857E72DE9F04F884604464C
:100B8000D21D22F0070191B0D1E90001CDE90A019F
:100B900004F0D2FD02460B98C00F01D02D2007E0D3
:100BA0002068810701D52B2002E0202101EAC00046
:100BB000032A099001D0072A05DB03464146204657
:100BC00000F0E0FB0BE12078800601D5E06900E051
:100BD0000620B8F1650F814606D0B8F1660F18D02F
:100BE000B8F1670F70D131E00020B9F1110F00901A
:100BF00001DB112301E009F101030AAA01A90CA8F4
:100C0000FFF7E2FEDDE90C70002609F101058346DD
:100C100047E001204B4600904FF000470AAA01A987
:100C20000CA8FFF7D1FEDDE90DB00C995D4600265A
:100C300010B909F101000D18B9EB050003D4C0F19A
:100C4000FF3609F10105A5EB09002BE0B9F1010F11
:100C500001DA4FF001090020B9F1110F0090484668
:100C600001DD112300E003460AAA01A90CA8FFF741
:100C7000ABFEDDE90C704D46002683462078000768
:100C80000AD4AB4500DA5D4601A8012D04DD411907
:100C900011F8011C302907D04F4502DA17F1040F73
:100CA00004DA012082460FE06D1EEEE7002F02DC21
:100CB000ED1B3E4403E0781CA84200DD7D1CB81B00
:100CC00000F1010A4FF000472078000703D4AA453D
:100CD00001DB4FF0FF3A0021B7F1004F0DF143085F
:100CE0008DF8431024D002202B23002F01DA7F42FD
:100CF0002D230A21021EA0F1010000DC5FB197FB49
:100D0000F1FC97FBF1F201FB1C7C17460CF1300C57
:100D100008F801CDEEE7A8F101000370218809056C
:100D200001D5452100E06521A0F1010800F8011C72
:100D300009980FA9A1EB0807FF1D00B10120411977
:100D400001EBEA70A1693844081A401EA0612078BE
:100D5000C00602D42046FFF73BFB099828B1D4E92E
:100D600001219047206A401C20622078C00622D5CD
:100D70002046FFF72DFB1EE0002E04DBB34502DD0D
:100D800001A8805D00E03020D4E901219047206A6D
:100D9000401C2062761CAAF101005FEA000A0AD119
:100DA00000F0A6FAC0680168405CD4E901219047D0
:100DB000206A401C2062281EA5F10105DCDC07E04A
:100DC000D4E9012118F8010B9047206A401C2062E9
:100DD000381EA7F10107F3DC2046FFF70FFB0320C5
:100DE00011B041E62DE9F04F04460D46D21D22F028
:100DF000070089B0D0E900974846394604F09CFCCA
:100E00000246F80F01D02D2307E02068810701D5A5
:100E10002B2302E0202101EAC0038DF820300BB122
:100E2000012000E00020032A824601D0072A04DBCB
:100E30002946204600F0A6FA3FE12078800601D43A
:100E40000D2500E0E569C7F30A560D2D49DA0021AA
:100E50004FEA175B08464FF00000002F00F44000F7
:100E600007DA00EB80004FF4400100EBD07001EA9C
:100E700060008115012901DD4FF0FF3100224FEAAA
:100E8000850CBCF1180F06D31346ACF118004FF0D7
:100E90008052C24003E04FF4801323FA0CF30CF1AC
:100EA0000C0CBCF1200F04D3ACF1200C09FA0CF0AF
:100EB00001E007FA0CF000294FF0004801DD18B9F5
:100EC0000FE00ED140450CD319EB02095F4121B967
:100ED000404502D19F4329EA0209BBEB175F00D0CE
:100EE000761C2088000502D57B48784402E07A48C9
:100EF0007844193808AA302302F80A30037C0AF132
:100F00000101002E0AF1020A53546A4602DC4FF036
:100F1000300101E04FF031014FF001088DF8001071
:100F200002D0A6F2FF3603E059EA470100D06B4E2B
:100F3000002D02DC2178090704D54FF002082E218C
:100F40008DF80110C44600210BE0C7F303433F01B5
:100F5000C35C491C6D1E02F80830052908F1010820
:100F600001DA002DF1DC00210CE000EB1973491CC3
:100F70001B786D1E082902F808304FEA091908F19C
:100F8000010801DA002DF0DC21688B0602D516E09D
:100F9000A8F10108E04505DD02EB080313F8013C68
:100FA000302BF5D0B8F1000F09DD02EB080313F880
:100FB000013C2E2B03D1090701D4A8F10108002D13
:100FC00005DD3E2102F808106D1E08F10108407C85
:100FD000002E02F8080008F1010804DA2D207642FC
:100FE00002F8080002E02B2002F808000A214FF462
:100FF0007A70864208F101080BDB96FBF0F3303380
:1010000002F8083096FBF0F308F1010800FB1366C4
:1010100001E0642E0CDB642096FBF0F3303302F821
:10102000083096FBF0F308F1010800FB136601E0BD
:101030000A2E06DB96FBF1F0303002F8080008F1CA
:10104000010896FBF1F001FB1060303002F8080057
:10105000A16908F1010808EB050202EB0A00081A71
:10106000A0612078C00602D42046FFF7B1F9216ABA
:1010700008AE01EB0A00206204E0D4E9012116F871
:10108000010B9047BAF1010AF7D22078C00602D5C9
:101090002046FFF79DF96E4609E016F8010B3E2841
:1010A0000FD0D4E901219047206A401C2062B8F19A
:1010B0000108F2D22046FFF7A1F909B00320BDE8EC
:1010C000F08F206A2844206203E0D4E90121302017
:1010D00090476D1EEBD3F8E7C6AF000002FCFFFFA0
:1010E00001694A1C02610878704700B58FB0CDE9EC
:1010F00001310021059105497944CDE903101146DC
:101100006846FFF73BFA0FB000BD0000E5FFFFFFA8
:101110000A6802F8010B0A60704710B5436913B101
:10112000AFF3008001E0FFF77AF9012010BD1278DB
:1011300000F124010A7000224A700122EDE71168D3
:101140004FF0FF32E9E700002DE9FF5F15468A46C0
:101150000446DFF8AC80F8440027D8E900103E468A
:10116000CDE9001010E03AF816106A4602A800F027
:10117000D1F9411C07D02178890603D5E2693918D5
:1011800091420DD80744761C2078800602D5E0698C
:10119000B84205DDAE42E6DB3AF816000028E2D19F
:1011A000A069C01BA0612046FFF712F9D8E9001022
:1011B000CDE90010002017E03AF818106A4602A89E
:1011C00000F0A8F9B0F1FF3F81460BD000250DF1EA
:1011D000080B05E0D4E901211BF8050090476D1CC0
:1011E0004D45F7D308F10100B0428046E4DB206AA8
:1011F000384420622046FFF701F9BDE8FF9F000058
:101200006EAD00002DE9F0418046D21D22F00702AC
:101210000025D2E90002F52915A614D0011E72F1AD
:10122000000106DA0023D0EB030063EB020211A6F3
:1012300008E0D8F800108B0701D50FA602E0490797
:1012400001D50EA601251146002408F1240704E06B
:1012500000F052F830323A55641C50EA0102F7D1DE
:101260002B46324621464046BDE8F041FFF73EBBE3
:10127000000000002D0000002B00000020000000F6
:1012800030B4002100F1240408E002F00705D20880
:10129000303542EA4372DB086554491C52EA0305C3
:1012A000F3D10468002310A2250707D5A40600D4B3
:1012B00021B1C46901230DA2641EC46130BCFFF7D3
:1012C00015BB10B5044621461068FFF706FB024621
:1012D0002046BDE810400023D2E7D21D22F00701CE
:1012E000D1E90023CCE7000000000000300000003E
:1012F00000487047B0AB002030B5B0F10A024FEAA9
:10130000900E71F100034EEA817EB0EB0E0061EBAE
:1013100091014FEA101E4EEA017E10EB0E0041EBE8
:1013200011114FEA102E4EEA016E10EB0E0041EB48
:1013300011214FEA104E4EEA014E10EB0E0041EB28
:101340001141401841F100014FEAD00040EA4170DC
:101350004FEAD10110EB80054FEA810444EA907412
:1013600044EB01046D1944EB0404521BA3414FF0FC
:10137000000348BF0A3200D530BD401C41F10001D6
:1013800030BD00002DE9F0411F46044603260168E8
:10139000072A01F4006004DB08B116A505E016A5D4
:1013A00003E008B115A500E015A521F010002060AC
:1013B000A069C01EA0610FB1401EA0612046FFF7CA
:1013C00007F84FB1D4E9012138469047206A401C04
:1013D0002062C01C206206E0206AFAE7D4E90121FD
:1013E00015F8010B9047761EF8D22046FFF706F855
:1013F000BDE8F0814E414E006E616E00494E4600E0
:10140000696E660010B5436913B1AFF3008001E067
:10141000FFF79AFE012010BD128800F1240182849A
:101420000022C2840122EDE711684FF0FF32E9E7A4
:101430002DE9F047814616468AB0354878440DC8F4
:101440008DE80D0032487844801C03AC0DC884E858
:101450000D0041F69B300844372190FBF1F290FBE0
:10146000F1F5A5F1800501FB12041B3C02D5644295
:10147000012000E00020DFF898A080460027FA4411
:10148000AAF1BE0A0EE0E0070AD03246684607EB32
:10149000470101230AEB810100F070FB8DE8070092
:1014A00064107F1C002CEED1194F7F44AE3F19E031
:1014B000E80715D007EB04100DF1180A90E80E00AC
:1014C0008AE80E00C068F04201D1981908903246AF
:1014D000012306A903A800F051FB03AB83E8070032
:1014E0006D10641C002DE3D14FF0010332466946B4
:1014F000B8F1000F03A802D000F02BFB01E000F0D0
:101500003DFBC9E90001C9F808200AB0BDE8F08731
:101510000CAB000070B516460C46054600F044F8CA
:10152000036893F80101012806D0FF2C0FD8185D3D
:1015300068B101202C7070BDD3F8070132462146F6
:1015400003F2071303442846BDE8704018474FF0E4
:10155000FF3070BD0048704790AB00207546FFF724
:10156000F9FFAE4605006946534620F00700854660
:1015700018B020B5FEF7ECFEBDE820404FF00006A5
:101580004FF000074FF000084FF0000B21F007016B
:10159000AC46ACE8C009ACE8C009ACE8C009ACE8AE
:1015A000C0098D467047000010B5FFF7A1FE001D71
:1015B00010BD00BF5D9B000010B50446AFF3008076
:1015C0002046BDE81040FEF7A2BE00004FF0013CEF
:1015D00050F8042B51F8043B9A4221D1A2EB0C03A2
:1015E000934313EACC1317D150F8042B51F8043B62
:1015F0009A4215D1A2EB0C03934313EACC130BD1FF
:1016000050F8042B51F8043B9A4209D1A2EB0C0389
:10161000934313EACC13DBD04FF00000704700BFB8
:10162000D01A01BAB1FA81F101F0180122FA01F0E1
:10163000CB40C1F12001DBB2C0B2C01A2CFA01F3D9
:10164000D11A914311EAC311E6D17047014918201C
:10165000ABBEFEE72600020070475FEA400C08BF01
:1016600091F0000F4FEA8C234FEAC12243EA515117
:101670004FEA1C5018BF00F5F0404FEA300018BF89
:1016800041F000415FEA6C5C00F02980BCF1FF3F53
:1016900008BF40F080407047130C06BF12044FF0A3
:1016A000100C4FF0000C130E04BF12020CF1080CCA
:1016B000130F04BF12010CF1040C930F04BF92002E
:1016C0000CF1020CD30F04BF52000CF1010C1146B7
:1016D0004FF00002A0F11F00A0EB0C00704711F0CA
:1016E000004F08BF704731F000413FF4D5AF0B0CFD
:1016F00006BF09044FF0100C4FF0000C0B0E04BF96
:1017000009020CF1080C0B0F04BF09010CF1040CC9
:101710008B0F04BF89000CF1020CCB0F04BF4900F2
:101720000CF1010CCCF12003A0EB0C0022FA03F326
:1017300002FA0CF241EA030100F10100704720F0C7
:101740007F4C80EA030023F07F47ACEB070303F5EF
:101750007C5300F0004003F1FF032DE980494FEA7C
:10176000154B09B44FEA144325EA0B4E24EA03480B
:101770000FF2042606EB132749083E785FEA32028F
:1017800003FB0667C7F5000707FB06F64FEA543769
:101790004FEAD64606F1020607FB066CCCF1005C68
:1017A0004FEA1C472CEA074C07FB06F40CFB06F536
:1017B00004EB15464FEA961634BF00204FF0004068
:1017C0004FEAD13706FB07FC4FEA1C4C0CFB0BF72A
:1017D000D21B03FB0CF761EB07010CFB0EF7B0EB20
:1017E000074072EB17420CFB08F734BFA2EB07422D
:1017F000B2EB074261EB17414FEA0C444FEA910705
:1018000006FB07FC4FEA1C4C0CFB0BF7B0EBC74088
:1018100072EB573203FB0CF734BFA2EBC742B2EBBB
:10182000C74261EB57310CFB0EF7B0EBC70072EB10
:1018300057720CFB08F734BFA2EBC702B2EBC7022A
:1018400061EB5771039F4FEA816141EA921104EB0A
:10185000CC044FEAD1374FEA826206FB07FC42EA2A
:1018600090124FEA80604FEA1C4C0CFB0BF7D21B26
:1018700003FB0CF761EB07010CFB0EF7B0EB074025
:1018800072EB17420CFB08F734BFA2EB0742B2EB36
:10189000074261EB17414FEA8C554FEA910704EB81
:1018A0009C2406FB07FC4FEA1C4C0CFB0BF7B0EB2F
:1018B000C74072EB573203FB0CF734BFA2EBC742B1
:1018C000B2EBC74261EB57310CFB0EF7B0EBC70030
:1018D00072EB57720CFB08F734BFA2EBC702B2EBF6
:1018E000C70261EB577115EB4C254FEA816141EA64
:1018F00092114FEA82624FEAD13742EA901206FB18
:1019000007FC44F100044FEA80604FEA1C4C0CFBDA
:101910000BF7D21B03FB0CF761EB07010CFB0EF777
:10192000B0EB074072EB17420CFB08F734BFA2EB99
:101930000742B2EB074261EB174115EB1C154FEA6A
:10194000813141EA92414FEA823242EA90424FEAC3
:1019500080304FEA0C7644F1000448EA03434EEA33
:101960000B484FF0000EB2EB080C71EB030724BFDD
:10197000624639464EEB0E0E4FF0000B00185241F6
:1019800049414BEB0B0BB2EB080C71EB03077BF1FE
:10199000000B24BF624639464EEB0E0E4FF0000B93
:1019A0000018524149414BEB0B0BB2EB080C71EBA9
:1019B00003077BF1000B24BF624639464EEB0E0E47
:1019C00051EA020718BF46F0010616EB0E7655F1F4
:1019D000000254F1000103D5BDE88901BDE800888B
:1019E000BDE88901BDE80048B619524141EB01014B
:1019F000A3F10103704780807F7E7D7C7B7A7978BC
:101A0000777676757473727171706F6E6E6D6C6CC3
:101A10006B6A6A6968686766666564646363626165
:101A20006160605F5F5E5E5D5D5C5C5B5B5A5A59E6
:101A30005958585757565655555554545353525252
:101A40005251515050504F4F4F4E4E4D4D4D4C4CAA
:101A50004C4B4B4B4A4A4A494949484848474747F3
:101A60004746464645454544444444434343434230
:101A7000424242414141002B9C4630D477002BD05A
:101A80001CB54FEA370703B44FF010004FF01001B8
:101A9000BAF1000F06D0BCF1000FDCBF40F0080027
:101AA00040F008014FF000000FBCBDE810400BF102
:101AB000010BBBF1010F08BF5FEA170722BF12F14C
:101AC000010211F101014FF0004143F1000300F068
:101AD000004043EA00007047F9D35708D0E746EAD0
:101AE000064613F1400F4FEA16461FDD13F1200F93
:101AF000DFBF16430A46002120335B42BED0C3F14C
:101B0000200746EA064602FA07F74FEA164646EA73
:101B10000706C3F1200722FA03F201FA07F721FAB8
:101B200003F14FF0000342EA0702A7E746EA020684
:101B300046EA06464FEA164646EA0106BCBF46EAB2
:101B40000646360C4FF000034FF000024FF0000144
:101B500094E72DE9804C9A46934670B491E838009A
:101B600007C831EA400C48BF34EA430C03D5FFF7FD
:101B7000E6FDFFF780FFF0BCBDE8008C2DE9804C4E
:101B80009A46934670B491E8380007C810F0804F29
:101B900008BF13F0804F03D100F005F8FFF76BFF8B
:101BA000F0BCBDE8008C20F07F4780EA030023F002
:101BB0007F4C07EB0C03A3F57C5300F00040A3F12E
:101BC000FE0392F0000F00F0B38095F0000F00F0DC
:101BD00077802DE901494FEA11404FEA144621EA86
:101BE000004800FB06FC24EA064708FB06F607FB54
:101BF00008F800FB07F718EB06484CEB164C4FEAC9
:101C0000124B18EB07484FEA15464CEB174022EAF7
:101C10000B4E0BFB06FC25EA06470EFB06F607FB00
:101C20000EFE0BFB07F71EEB064E4CEB164C4FF06F
:101C300000061EEB074E4CEB174B18EB0B0840F160
:101C4000000018EB0E0B58EB000840F100008F1A53
:101C50004FF000013CBFC943661B14BFB5EB040C39
:101C600000213CBFC943F61B4FEA17444EEA8E0ED3
:101C700027EA04454FEA1C4704FB07622CEA074C9D
:101C800005FB07F70CFB05F604FB0CFC16EB0746FF
:101C900042EB174216EB0C4642EB1C421BEB0606CE
:101CA00058EB0202414146EA9E0601D5BDE8018992
:101CB000B619524141EB0101A3F10103BDE80189CD
:101CC0004FEA14454FEA114724EA054621EA074C3A
:101CD00005FB07F406FB07F70CFB06F105FB0CFC04
:101CE00011EB074144EB17444FEA124711EB0C414B
:101CF00044EB1C4422EA074C05FB07F206FB07F7FE
:101D00000CFB06F605FB0CFC16EB074642EB1742F4
:101D100016EB0C4642EB1C456A1854F1000148BF13
:101D20007047B619524141EB0101A3F1010370471D
:101D300095F0000F37D04FEA11424FEA144721EADD
:101D4000024624EA074C02FB07F106FB07F70CFBEF
:101D500006F402FB0CFC14EB074441EB17414FEA7D
:101D6000154714EB0C4441EB1C4125EA074C02FBE0
:101D700007F506FB07F70CFB06F602FB0CFC16EB5F
:101D8000074645EB174516EB0C4645EB1C4212196E
:101D900051F1000148BF7047B619524141EB0101B2
:101DA000A3F1010370474FEA14454FEA114724EAB3
:101DB000054621EA074C05FB07F106FB07F70CFB7C
:101DC00006F24FF0000605FB0CFC12EB074241EB5C
:101DD000174112EB0C4251EB1C4148BF704792185F
:101DE00041EB0101A3F101037047F0B50F258C0011
:101DF000072906D8066AA540AE43A24016430662EC
:101E00000AE0A1F10806072E34D8203C466AA54016
:101E1000AE43A24016434662C2684E000324B4405B
:101E2000A243C260DF074FF0010C4FF002050CFA2D
:101E300006F205FA06F502D0C668164303E09E07CF
:101E400002D5C6682E43C660DE0505D546680CFA85
:101E500001FC46EA0C0646608168A1438160590591
:101E600002D5816821438160016891430160016866
:101E700029430160F0BD10B5D0E902342344144475
:101E8000C46003E011F8010B03F8010B521EF9D2F4
:101E900010BD00002DE9F047DFF8E4821E46BDF8D2
:101EA0002030D8F800500C4640F271472B70BDF836
:101EB0002030D8F800101B0AC5B24B70BDF82010B6
:101EC0004FF00009A1F27143B9425DD01BDC40F232
:101ED0004343A1F24340994256D00DDC052953D02B
:101EE000B1F5047F50D0A1F5007111394CD0A1F5A6
:101EF000007103397DD147E0222845D0272843D0FF
:101F00002D2876D140E0E0B240F08007D32B3BD0C3
:101F100032DC1F2B38D0802B36D0D22B69D1D8F8A9
:101F2000004000204946A41D04EB4002401C1181E2
:101F30000A28F9DB93480178618093A001F076F8D4
:101F400095481C220088E08094480088A08094482E
:101F500000882080D8F80010CE70D8F800100F71DB
:101F6000D8F800104D71D8F800108A70D8F8001019
:101F7000C8F804202222FCE0D52B18D0D62B03D0A1
:101F8000A3F50073153B34D1D8F800108548CE7006
:101F9000D8F800100C71D8F800104D71C8F80490F2
:101FA000D8F800108A70D8E90012921DE2E07EA0F5
:101FB00001F03CF8D8F800004FF0010A0021434638
:101FC00020F806AF4A46213C00EB410C491CACF816
:101FD0001E200A29F8DB7749028201EB8401764A48
:101FE000D1ED000A52F8241000EE101AB8EEC00A23
:101FF00000E0C3E0DFF8C4C120EE800A1CF8041042
:10200000DFED6F0A012903D1B0EE401A81EE200AFC
:10201000BDEEC00A10EE101AC0F81210694901EBAB
:10202000840191ED001A52F8241000EE101A1CF8E9
:102030000410B8EEC00A012921EE000A03D180EE97
:10204000201AB0EE410ABDEEC00A10EE101AC0F818
:1020500016105D4901EB840191ED001A52F824102D
:1020600000EE101A1CF80410B8EEC00A012921EE87
:10207000000A03D180EE201AB0EE410ABDEEC00A7C
:1020800010EE101AC0F81A10504901EB840191EDBE
:10209000000A9FED4F1A52F8241020EE010A01EEBB
:1020A000101AB8EEC11A21EE001ADFED4A1A1CF818
:1020B000041081EE210A012903D180EE201AB0EE2E
:1020C000410ABDEEC00A10EE101AC160424901EB90
:1020D000840191ED000A9FED411A52F8241020EE80
:1020E000010A01EE101A1CF80410B8EEC11A0129F9
:1020F00021EE001A81EE210A03D180EE201AB0EE03
:10210000410ABDEEC00A10EE101A8160344911F880
:102110000480B8F1000F01D1A0F802A0095D0129E7
:1021200001D1022141802F4901EB840191ED001A78
:1021300052F8241000EE101A1CF80410B8EEC00A71
:10214000012921EE000A03D180EE201AB0EE410AE7
:10215000BDEEC00A10EE101A41601868C67018680B
:10216000077118684571196832203822887019681B
:1021700058600C48BDE8F047FFF77DBEBDE8F0872A
:10218000BC010020E20000200D0A422D6E65737331
:10219000203E202564000000F8000020FC00002004
:1021A000F4000020C80100200D0A4A2D7061722041
:1021B0003E000000DC9F002018A000201801002035
:1021C0000000B443E89F0020F49F0020C49F00203B
:1021D00018B751460000FA44B89F002057ECAF3FB3
:1021E0001B010020D09F0020FEB52E482EA10278B2
:1021F0002F48FEF7D7F802221C212E4801F092FC4E
:102200002D4845F6D811006890FBF1F02B4901EB01
:1022100000122BA12648FEF7C5F8022221212548ED
:1022200001F080FC2748284A037833B9417821B966
:10223000817811B9C17800292DD0C478817840788F
:102240008DE81300126821A11948FEF7ABF80B22A4
:102250002621184801F066FC254826A1026814488A
:10226000FEF7A0F80A223421124801F05BFC114E5F
:10227000264D002424F003003158286800F584100E
:1022800004F0E2FB0421286804F006FF241D286006
:10229000F82CEFD3FEBD12681DA10548FEF782F8A9
:1022A000D5E70000E200002025642525000000009D
:1022B00070AB0020AC080020F400002074B90008C6
:1022C000257300000C010020840100204657205295
:1022D00065763A20253036582020495020416464E4
:1022E000723A2025642E25642E25642E2564000074
:1022F000A00100204D61696E2073657269616C20D8
:102300006E756D6265723A2025640000E001002060
:102310004657205265763A202530365820204950BD
:1023200020416464723A204E2F4100002DE9F84F9D
:102330008A48DFF82CA20078C00708D09AF800007D
:10234000202804D2874A1070401C8AF80000864872
:10235000DFF818820078C00708D098F8000020281D
:1023600004D2834A1070401C88F800008148DFF8CE
:1023700008920078C00708D099F80000202804D2FD
:102380007E4A1070401C89F800007D4800780228C1
:102390007ED07C48DFF8F0B17C4D007801267C4F80
:1023A00040F24654072808D0082871D198F8000058
:1023B000DFF8E0810B2844D06FE099F80000DFF8E7
:1023C000D8910B2812D199F80010002305EB810059
:1023D0001A4610ED010A714800EB8100203100ED32
:1023E000010A19200094FFF755FD3E709AF800008D
:1023F0000B2812D199F80010002305EB81001A4632
:1024000010ED010A664800EB8100203100ED010A61
:1024100019200094FFF73EFD3E7098F800000B284D
:1024200036D199F80010002305EB81001A4610ED13
:10243000010A0BEB810000ED010A19202031009404
:1024400086E095ED000A00238BED000A95ED010A68
:102450001A468BED010A95ED020A21218BED020A45
:1024600019200094FFF716FD98F80000012806D9FE
:1024700000231A46222119200094FFF70BFD98F83B
:102480000000022808D9002323211A46192000E061
:1024900061E00094FFF7FEFC3E709AF800000B2804
:1024A0002AD13F4895ED000A002380ED000A95ED02
:1024B000010A1A4680ED010A95ED020A212180EDFC
:1024C000020A19200094FFF7E5FC98F800000128A3
:1024D00011D900231A46222119200094FFF7DAFCB3
:1024E00098F80000022806D900231A462321192053
:1024F0000094FFF7CFFC3E7099F800000B282AD11A
:10250000264895ED000A002380ED000A95ED010AAA
:102510001A4680ED010A95ED020A212180ED020A9A
:1025200019200094FFF7B6FC98F8000045460128F2
:1025300010D900231A46222119200094FFF7AAFC83
:102540002878022806D900231A462321192000944E
:10255000FFF7A0FC3E70BDE8F88F0000EC00002003
:10256000E700002089010020EB000020E6000020A9
:1025700088010020ED000020E80000208A010020F2
:10258000D9000020E0000020F49F0020AC9F002034
:10259000DA000020E5000020DF000020DC9F0020A2
:1025A000E89F00202DE9F041494C4AA14B48227890
:1025B000FDF7F8FE01221F21494801F0B3FA49490D
:1025C0002078474E014411F8012C46F66D51002A3F
:1025D00007D04FF06F02C6F8A42005D14FF02002BB
:1025E00004E04FF02002F6E74FF06F02C6F8DC205F
:1025F00002D14FF0200201E04FF06F02C6F8242113
:1026000001D10A4601E04FF02002C6F8B42001D102
:102610000A4601E04FF02002C6F8EC2001D04FF04E
:102620002001C6F83411304901EB800050F8040C49
:1026300009F05EF841EC100B2CA153EC102B27484D
:10264000FDF7B0FE03222321254801F06BFA29484B
:10265000217800EB810050F8040C09F049F841ECB6
:10266000100B22A153EC102B1C48FDF79BFE0322FC
:1026700031211B4801F056FA1F48217800EB8100F8
:1026800050F8040C09F034F841EC100B17A153EC8E
:10269000102B1248FDF786FE03224321104801F05B
:1026A00041FA164D00244FF4AC7724F00300315862
:1026B000286800F5841004F0C7F90421286804F0A4
:1026C000EBFC241D2860BC42EFD3BDE8F081000084
:1026D000DF000020436825640000000070AB00208C
:1026E000D006002018010020D09F0020252E336640
:1026F00000000000C49F0020B89F0020E0010020DF
:1027000070B5184C18A11A482278FDF74BFE01222B
:102710001A21184801F006FA174821780844174989
:1027200010F8010C00EB0010421815A11048FDF73D
:1027300039FE03221E210F4801F0F4F90D4E114D10
:10274000002424F003003158286800F5841004F0B8
:102750007BF90421286804F09FFC241D2860842C48
:10276000EFD370BDDF000020436825640000000047
:1027700070AB0020280800201B010020A4B900082D
:1027800025730000E00100202DE9F04FFD48FE4FC9
:10279000FE4DFF4C4FF000092DED048B81B04FF042
:1027A000030B007840F2654640F2714A022871D16D
:1027B000F84800780128FAD12146F7480B7895F8B7
:1027C00000C000EB83000090F44803F12001BCF14D
:1027D0000D0F90F800E038460278F14890ED000ABD
:1027E000F048007856D2DFE80CF055071525314245
:1027F000909EADD6EAF0FF000121217001F0C0F9F2
:1028000030B100962178022300221920203179E08E
:102810000220D2E0022A3DD0E248184410F8010C10
:102820000B284FF40470009002D00223012268E0CC
:102830000123FBE7DC494FF47A700860009810ED43
:10284000010AD74880ED000A0A20B6E0D7481844AC
:1028500010F8012C3AB100F8019C40F246500023D8
:102860001A4600904DE0012200F8012CF5E7022AFB
:1028700010D0CC4A0B2804D1CD48008808B10121E2
:1028800000E0002150780B2805D1C948408810B1DC
:10289000012001E0B0E00020084391780B2904D129
:1028A000C349898809B1012100E000214FF404786F
:1028B0000143CDF8008011D001231A4621211920AF
:1028C000FFF7E8FA01231A4622211920CDF80080EB
:1028D000FFF7E0FA0123CDF8008010E00223012287
:1028E00021211920FFF7D6FA0223012222211920E3
:1028F000CDF80080FFF7CEFA0223CDF80080012248
:1029000023211920FFF7C6FA76E0A7490A200860BC
:10291000A848007800EE100AA148B8EE400A80ED01
:10292000000A092049E0DFF87482BEF1040F06D2E4
:1029300001231A461920CDF800A0FFF7ABFA88F85A
:10294000009059E0BEF1040F21D201231A46212143
:102950001920CDF800A0FFF79DFADFF85C8298F807
:102960000000022807D301231A4622211920CDF89E
:1029700000A0FFF78FFA98F80000032807D301237F
:102980001A4623211920CDF800A0FFF783FA8349C6
:1029900081F8009030E0022A0ED0BDEEC00A8549D1
:1029A000002310EE100A1A46087040F243500090BF
:1029B00011211920FFF76EFA062028701CE0022A68
:1029C00018D0009805E00FE0FFE7022A12D07B48FC
:1029D0000DE000ED010A40F24650002300901A4637
:1029E0001920FFF757FA05E0022A03D0744800EBDC
:1029F0008300EEE785F800B0724800789FED728B97
:102A000002281DD1724800780128FAD12978714A2C
:102A100040F243400D2913D2DFE801F01207131DE5
:102A2000122D4663739DF2F0EF005E480221217083
:102A3000407801F0A5F810B10223009606E0297055
:102A40005BE139780229FBD0002300902178002235
:102A50001920203142E0544942F210700860574872
:102A6000217800EB810010ED010A4D4880ED000A4D
:102A70000B20287041E139780229E1D080460023FB
:102A800000901A4621211920FFF704FA00231A4664
:102A900022211920CDF80080FFF7FCF900231A4607
:102AA0002321CDF8008018E04B4945F255520868C3
:102AB000904202DA4FF4004008E04AF6AA2290421F
:102AC00002DA4DF2555001E042F6AB2008600023D7
:102AD00040F243501A46112100901920FFF7DAF90D
:102AE0000BE110789046042808D2CDF800A0217898
:102AF0000223012219202031FFF7CCF988F8009039
:102B0000FBE034480078042821D20223012221214D
:102B10001920CDF800A0FFF7BDF9DFF89C8098F8E8
:102B20000000022813D30223012222211920CDF80C
:102B300000A0FFF7AFF998F80000032807D302239D
:102B4000012223211920CDF800A0FFF7A3F9214984
:102B500081F80090D1E0387802280BD01249104853
:102B600091ED000AD0ED000AB8EEC00A30EE800AFE
:102B700080ED000A0A48194A0168914230DA00EEF5
:102B8000101A31E0ED000020D9000020E000002004
:102B9000DF0000208F010020D09F00208A0100204C
:102BA00010010020F0000020140100201B01002073
:102BB0007E010020E2000020E5000020C49F0020EC
:102BC000B89F0020EC000020FCA9F1D24D62503FDC
:102BD0008E01002089010020F40000200000C8427E
:102BE0009FEDFB0A80ED000ABCEEC00A10EE100A51
:102BF000C1B2F84803F05EFF7FE055E034E0FFE744
:102C00003878022817D0F448006808F071FB53ECBC
:102C1000182B08F085FBDFF8C48341EC190BD8F8BA
:102C2000000008F065FD53EC192B08F0B9FA08F024
:102C300085FAC8F80000EA48217800EB4100E7492E
:102C400030F9020C00EE100AD1ED000AB8EEC00A0D
:102C5000B4EEE00AF1EE10FA4FD800EE100AB8EE2A
:102C6000C00A81ED000A48E03878022817D0DA4817
:102C7000006808F03DFB53EC182B08F051FBDFF81F
:102C80005C8341EC190BD8F8000008F031FD53ECDF
:102C9000192B08F085FA08F051FAC8F80000D1485D
:102CA0001EE080ED000A28E03878022817D0CA48D4
:102CB000006808F01DFB53EC182B08F031FBDFF81F
:102CC0001C8341EC190BD8F8000008F011FD53ECFF
:102CD000192B08F065FA08F031FAC8F80000C2486C
:102CE000217800EB810010ED010ABC48D0ED000A0C
:102CF000B4EEE00AF1EE10FAD3D9BC48007802280D
:102D000020D1BB48007801281CD12878DFF8E48264
:102D10000D2817D2DFE800F0A707191BA72AA72D57
:102D2000395F83838300B44884F800B0807800F072
:102D300027FF40B10096217802230022192020317C
:102D4000FFF7A8F88FE0022011E007200FE0A2496A
:102D500042F210700860A948217800EB810010ED64
:102D6000010A9E4880ED000A0C2000E0082028702F
:102D700079E098F8000004282AD2CDF800A0217844
:102D8000032301221920203120E098F800000428B4
:102D90001ED20323012221211920CDF800A0FFF724
:102DA00079F8974F3878022812D303230122222181
:102DB0001920CDF800A0FFF76DF83878032807D365
:102DC0000323012223211920CDF800A0FFF762F888
:102DD00088F8009047E0387802280BD07E497F4879
:102DE00091ED000AD0ED000AB8EEC00A30EEC00A3C
:102DF00080ED000A79480168B1F17E5F02DB00EEE8
:102E0000101A03E0B7EE000A80ED000ABCEEC00A1B
:102E100010EE100AC1B26F4803F04CFE23E0387880
:102E2000022814D06C48006808F062FA53EC182BA2
:102E300008F076FA694F41EC180B386808F058FC36
:102E400053EC182B08F06AFB08F078F938606348F7
:102E500090ED000AB5EEC00AF1EE10FA03D29FED34
:102E6000690A80ED000ADFF8A081684F98F8000039
:102E700002281DD1387801281AD1287805210D287B
:102E80007FD2DFE800F07E0716254A274A4D075E0D
:102E900068737300584A107800F072FE38BB50789F
:102EA00000F06EFE18BB907800F06AFEF8B9297049
:102EB00067E051482178084410F8010C00F060FEEA
:102EC000B0BB02E0FEF7E6FF5BE085F800B058E03B
:102ED000042023E04849087800F052FE38B94878C9
:102EE00000F04EFE18B9887800F04AFE98B102232F
:102EF0000022212119200096FEF7CCFF0223002298
:102F0000222119200096FEF7C5FF0223002223216B
:102F100019200096D6E7062000E00120287030E056
:102F200035482178084410F8010C00F029FE30B132
:102F3000009621780223002219202031C2E70220C6
:102F4000ECE72549086800EB8000400008600A288B
:102F500017DD012014E0204942F21072086800EBEE
:102F60008000400008609042F3DC0AE01A49284AD9
:102F7000086800EB800040000860904201DD64209A
:102F800008602448244A017802290BD110780128CE
:102F900008D11B4B20781B78984201D2401C00E0DE
:102FA000012020701D48117001781D4801700F48E4
:102FB00001780F4801701B4801781B48017098F890
:102FC0000000387001B00020BDEC048BBDE8F08F2C
:102FD0000000C842C4241000140100201001002089
:102FE0007E01002000A000200CA00020EB000020AB
:102FF0008D01002088010020F0000020B89F0020F3
:10300000E500002000000000EA0000208C01002004
:10301000A0860100E90000208B010020ED000020C7
:103020008F010020EC0000208E0100200FB410B5AD
:10303000084C03AA6068B0F5006F00D3FEE7216872
:1030400008440299FDF79CF961680144616010BC75
:103050005DF814FBC400002010B50B4C606800281C
:1030600011D002F075F900280DD0D4E9000102F06A
:10307000FFF9064920688842084601D100F5006042
:1030800020600020606010BDC4000020AC8F0020D4
:1030900000B5024601F0A4FC014601F0A1FC401A73
:1030A00080B29042F9D300BDF0B5D7044FEA410594
:1030B0004FF001044FF002064FF0030304FA05F449
:1030C00006FA05F603FA05F310D401689943016086
:1030D000C1689943C160D10702D0C168214303E0B0
:1030E000910702D5C1683143C160F0BD97054FF02B
:1030F000010505FA01F501D5294603E04FF48037B3
:1031000007FA01F18161D10502D541682943416087
:10311000816899438160510502D5816819438160B6
:103120000168B1430160016821430160F0BD000006
:103130002DE9F05F934640B1D0F800C00CF10604D1
:10314000BCF800309CF8040006E039B188884FF0E4
:10315000000C83B20878644600F07F08DBF800605A
:103160004FF0000AB71D86F803A00125357186F8D7
:103170000580D14640F25128A3F25120FE49CBF8F8
:1031800004A0434571D013DC402B6FD007DC012B2A
:1031900035D0FA4A052B38D0062B68D168E0422B8F
:1031A000F3D0A3F50073233B5CD02D2BF5D1DBE0EE
:1031B0009FEDF33A9FEDF34ADFEDF33ADFEDF30ACB
:1031C000F34BF44E4FF00208B0F53D7F0CD00CDC11
:1031D000B0F5E27F4BD0B0F5107F7DD0A0F5007048
:1031E000A1385DD05128D8D1D4E0A0F50070F538D1
:1031F00073D00228FCD0B0F5A07FCED1C5E03580D9
:1032000086F802A086F803A029E00620308054202A
:10321000B0703079E04940F0800030711068DFA371
:10322000084438600722DFA1381DFDF7BBF81020E5
:10323000B881DE48C7F80E00DDA32F22D9A107F11F
:103240001200FDF7AFF8D8A30922D6A107F142007A
:10325000FDF7A8F827F84E5FA7F802A0BD804FF051
:103260000109B2E03C20DB4918E085E0A1E016E06E
:10327000206850602068D849B0FBF1F301FB1301CE
:10328000D6A01160FFF7D2FEDB4AB4F85200D4F8A2
:103290000E101160411E032901D2D849087012E2B4
:1032A0009CF80510D64F2139022951D80A46D4F886
:1032B0001A0046F82200D4F82210D4F81E60891BA8
:1032C00091FBF0F627F812606188752932D003F877
:1032D00002A0D4F82E1001E01CE17CE000EE101AF0
:1032E000C849B8EEC00A01EB820520EE031A00EED1
:1032F000100AB8EEC00A60EE041A81EE210A85EDCC
:10330000000AD4F8261001EE101ABF49B8EEC11A0F
:1033100001EB820161EE031A01EE100AB8EEC11A48
:1033200021EE232A81EE821A81ED001A985C012891
:1033300002D00DE09D54CCE721EE201A4FF4B4707A
:1033400020EE200A27F8120081ED001A85ED000A10
:1033500037F812000028A2D0AC48ADA100EB021053
:10336000A21DFDF71FF8AEE19CF8050021380228E8
:1033700095D89CF8030091E740F2522030809CF8E9
:103380000200B0700878F0709DE1A249A24881F86F
:10339000008093E1A149A078A14A087021881160BA
:1033A000A04AE1881160A04AA188116001F096F856
:1033B00089E19E490020225C0A54401C0428FADB63
:1033C0009B48B9F1000F05707ED0307900067CD59E
:1033D000B078801D75E19CF805002138022873D86B
:1033E00062889449012A01D101F800A06288022A6A
:1033F00000D10D54D4F8121000EE101A8E4901EBD2
:10340000800256F82010B8EEC00A01EE101AF8EE4D
:10341000C11A80EE211A01EE901AB8EEE12A82ED6F
:10342000001AD4F8165000EE105A844DB8EEC00AB7
:1034300005EB8008C0EE021A02EE101AF8EEC22A5E
:10344000C8ED001AD4F81A5000EE105A7C4DB8EEB0
:10345000C00A05EB800C80EE222A02EE901AF8EEEC
:10346000E22A22EE844A8CED002AE56800EE105A2A
:10347000744DB8EEC00A05EB800720EE030AC0EEDB
:10348000042AC7ED002AA56800EE105A6E4DB8EE6A
:10349000C00A05EB800620EE030A03EE101AB8EE10
:1034A000C33A63EE233A80EE233A86ED003A65682C
:1034B00000EE105A654DF8EEC03A00EE101A05EB1A
:1034C0008005B8EEC04A01E054E0F9E083EE840ADA
:1034D00085ED000A195C012917D121EE201A20EE92
:1034E000200A82ED001A21EEA01A88ED001A22EEC1
:1034F000201A8CED001A22EEA01A87ED001A23EE96
:10350000201A86ED001A85ED000A514A218A42F8F8
:103510002010D8E09CF80570213F022F2AD8D85DF2
:10352000012806D0D4F8020000EE100AB8EEC00A56
:103530000EE056F82710D4F8020000F02BFB00EE46
:10354000100AD85DB8EE400A012801D120EE200A09
:1035500056F82700404900EE900A3E48F8EEE00A8F
:1035600000EB870080EE201A80ED001AD4F80A00E4
:10357000C20573E0A7E00000D90000209C010020F4
:103580000000FA4418B7514657ECAF3F0000B4436F
:103590001801002018A0002000F36F0646503030BC
:1035A00030310000252D2A730000000009000100C1
:1035B000424D433130582046726F6E742050616E18
:1035C000656C20496E74657266616365204D6F6439
:1035D000756C6500DE00002040420F000D0A204897
:1035E0005720696E666F2072656365697665642031
:1035F000534E20256400000084010020E5000020D7
:103600007E01002000A000200CA000201E01002050
:1036100025730000DC000020DD000020E200002017
:10362000F4000020F8000020FC0000200C01002025
:10363000DA0000201B010020DC9F0020E89F002012
:10364000F49F0020C49F0020B89F0020D09F00203E
:1036500064A60020AC9F0020F000002002D401F8F6
:1036600007A02AE0020501D5CD5526E0002801DBA0
:103670000B2021E0820501D505201DE0420501D483
:103680000C2019E0020302D501F8078015E00201C1
:1036900001D5032010E0420101D504200CE0C2074F
:1036A00001D0062008E0820701D5072004E0800051
:1036B00001D5082000E00920C8550448057002E043
:1036C0000620CBF804004846BDE8F09FDA00002051
:1036D00070B516480078022824D01548154E46F8D3
:1036E000940F01F0D3F981034FF47A6291FBF2F168
:1036F00047F6FF72511A4042716500240E4D706604
:10370000943E24F003003158286800F5841003F03B
:103710009BF90421286803F0BFFC241D2860FC2CC1
:10372000EFD370BD43F27770D8E70000E9000020C6
:103730001F1FFF002C110020E001002070B52A4C53
:10374000206840F001002060284D012211462846E3
:10375000FFF7AAFC012200212846FFF7A5FC002262
:1037600008212846FFF7A0FC206840F002002060F6
:103770001F4D012208212846FFF796FCA614324669
:103780000D212846FFF790FC324605212846FFF719
:103790008BFC324604212846FFF786FC32460F2177
:1037A0002846FFF781FC206840F004002060114C9F
:1037B00001220D212046FFF777FC01220E21204631
:1037C000FFF772FC01220F212046FFF76DFC01225A
:1037D00009212846FFF768FC32462846BDE87040BC
:1037E0000C21FFF761BC00003038024000000240AD
:1037F00000040240000802402DE9F04F85B04FF46C
:10380000F07004904FF4887003904FF409700290A8
:103810002B20019000204FF0290B4FF4927A4FF0AB
:103820000C0980460A27052406460125009003F06E
:103830006FF8442003F06CF8622003F069F8424806
:1038400003F0AAF87C2800D0FEE73F480499303006
:1038500003F0CAF83C480299283003F0C5F83A480A
:1038600001992C3003F0C0F837480099343003F048
:10387000BBF835485946383003F0B6F8324803995A
:10388000443003F0B1F8304851463C3003F0ACF816
:103890002D484946403003F0A7F82B4841464830B0
:1038A00003F0A2F8284839464C3003F09DF826482A
:1038B0003146603003F0FEF823482946683003F0B3
:1038C000F9F821480021F03003F0F4F800211F48F6
:1038D00003F08AF81C4800217C3003F0EBF81A480A
:1038E0000021803003F0E6F818484FF4C0418038DA
:1038F00003F07AF84FF00071481103F0A5F814496D
:10390000144803F0A1F813480021001D03F09CF8AF
:103910000D480221503003F097F80C4D743D2846B5
:1039200003F03AF840F08001284603F0C3F8074856
:103930000021403803F0BEF805B02146BDE8F04F45
:1039400001486C3003F0B6B80024100004251000C4
:1039500007000026040010002DE9F04110215D4809
:1039600003F0A8F85B4F5C4C20375C4D3E1D384699
:1039700002F0E4FF2060304602F0E0FF286021689A
:103980008842F4D1564C01462060304603F02CF8B2
:1039900020686FF0DD05294600F5841003F054F827
:1039A0000421206803F078FB2060002100F58410DA
:1039B00003F04AF80421206803F06EFB20604FF406
:1039C0002E72484900F5841001F0A6FB21680844D6
:1039D00020609620FFF75CFB2068294600F58410E4
:1039E00003F032F80421206803F056FB20604FF406
:1039F000811100F5841003F027F80421206803F0FA
:103A00004BFB20601822384900F5841001F084FB3C
:103A10002168084420603220FFF73AFB20686FF0ED
:103A2000FF0100F5841003F00FF80421206803F073
:103A300033FB20602D4900F5841003F005F80421C4
:103A4000206803F029FB2060294A2AA13248FCF7AC
:103A5000A9FC0A221C21314800F064F82F4F0025F0
:103A600025F003003958206800F5841002F0ECFFBF
:103A70000421206803F010FB2D1D2060982DEFD34A
:103A80004FF0045100F5841002F0DEFF042120689D
:103A900003F002FB2060002100F5841002F0D4FF47
:103AA0000421206803F0F8FA20606FF0FE0100F5B1
:103AB000841002F0C9FF0421206803F0EDFA0146EA
:103AC0002060304602F090FF154914200870BDE8D0
:103AD000F0810000C4241000D8010020DC01002087
:103AE000E001002098BB000850BE00080700002637
:103AF0000900010046726F6E742070616E656C2063
:103B00006669726D77617265207265766973696F37
:103B10006E2025303658000070AB00209410002035
:103B2000E400002070B5064614460D461348FCF725
:103B3000E9FD124900220A54401C8307FBD1FF22F1
:103B4000042307E00A54401C0A54401C0A54401C39
:103B50000B54401CB0EB840FF4DB00230AE0980008
:103B60000A5C0844D0F8010042EA0020EA185B1C15
:103B700046F82200A342F2DB70BD000070AB0020CB
:103B8000052805D0082803D00A2801D00020704756
:103B90000120704790FBF1F201FB1200002800DACF
:103BA000084470472DE9F05FFD4C2078FFF7E8FFEF
:103BB00008B1012700E000276078FFF7E1FF00B1BE
:103BC00001208146A078FFF7DBFF00B1012080468D
:103BD000207847EA090646EA08060B280FD000219C
:103BE00060780B280DD00020A278A2460B2A0AD0BC
:103BF0000022EC4C49B1218839B1012306E00121B2
:103C0000EEE70120F0E70122F3E7002318B1608816
:103C100008B1012100E0002119431AB1A08808B1C0
:103C2000012000E000200843DF49E04CDFF880B3CA
:103C3000097843F27775012902D0052949D16EE050
:103C4000002F01D0204600E028465F46CBF8040054
:103C500001D0D8A100E0D9A1DA48FCF7A3FB0522E6
:103C60000621D348FFF75EFFB9F1000F01D02046CF
:103C700000E02846386301D0CEA100E0D2A1D148AF
:103C8000FCF790FB05221121C948FFF74BFFB8F163
:103C9000000F01D0204600E02846F86501D0C5A1FC
:103CA00000E0CBA1C748FCF77DFB05221C21C048E2
:103CB000FFF738FF002E00D12C46C7F8884055D1B9
:103CC000C5A1C048FCF76EFB05222721B848FFF7C5
:103CD00029FFC34E306807F00BFDC24D41EC100BBD
:103CE0002878E8B3C0A153EC102BB648FCF75AFB78
:103CF00003223221AE48FFF715FFBD4C2078022881
:103D00003CD3706807F0F4FC41EC100B287840B30A
:103D1000B5A153EC102BAB48FCF744FB32E008B1E3
:103D2000B4A100E0B6A1A748FCF73CFB05220621A0
:103D30009F48FFF7F7FEB5A1A248FCF733FB052229
:103D400011219B48FFF7EEFEB3A19E48FCF72AFB2A
:103D500005221C219648FFF7E5FE002E03D101E065
:103D600008E009E02C46CBF8884001D0ADA1A8E7D7
:103D7000AFA1A6E7B0A1B6E7AFA1CAE7B0A191484D
:103D8000FCF710FB032241218948FFF7CBFE207886
:103D900003280FD3B06807F0ABFC41EC100B287878
:103DA00030B191A153EC102B8648FCF7FBFA05E0EB
:103DB000A1A1F7E7A2A18348FCF7F4FA032250215E
:103DC0007B48FFF7AFFE287846F66D51002807D0F4
:103DD0004FF06F005E46CBF8E00004D1084604E0E7
:103DE0004FF02000F6E74FF02000C6F8F0002078F2
:103DF0004FF0200302281FD36A78002A06D04FF024
:103E00006F02C6F81C2104D10A4604E04FF02002DC
:103E1000F7E74FF02002C6F82C21032810D3A8782A
:103E2000002839D04FF06F00C6F8580101D04FF08C
:103E30002001C6F8681107E0C6F81C31C6F82C311D
:103E4000C6F85831C6F868317E487F496FF07B4329
:103E50000078012823D01A46C6F8B820022820D0BE
:103E60001A46C6F8F420032800D01946C6F83011C7
:103E7000764A77A15348FCF795FA04225F214C4813
:103E8000FFF750FE207802280DD3704A70A110323F
:103E90004C48FCF787FA0AE04FF02000C4E70A46D6
:103EA000DAE70A46DDE766A14648FCF77BFA04221A
:103EB00066213F48FFF736FE2078032806D3634A81
:103EC00063A120323F48FCF76DFA03E05CA13D4856
:103ED000FCF768FA04226D213548FFF723FE5D4D9B
:103EE0005D4F2878022808D09AF8000058A107EB07
:103EF00000123448FCF756FA03E058A13148FCF7A9
:103F000051FA052274212A48FFF70CFE2078022876
:103F100023D32878022808D09AF801004CA107EB97
:103F200000122848FCF73EFA03E04CA12548FCF7B4
:103F300039FA05227C211E48FFF7F4FD207803287A
:103F40002CD3287802280AD09AF8020040A107EB67
:103F500000121C48FCF726FA05E039A1E6E73FA16C
:103F60001848FCF71FFA052284211148FFF7DAFDF3
:103F70003D4D00244FF41E7724F00300315828688B
:103F800000F5841002F060FD0421286803F084F835
:103F9000241D2860BC42EFD3BDE8F09F66E000001E
:103FA000F00000207E010020E00000201F1FFF0025
:103FB000E401002053746F7000000000436820315A
:103FC0000000000070AB00204368203200000000B9
:103FD0004368203300000000436820416C6C0000FF
:103FE000AC9F002018010020252E34660000000040
:103FF000E5000020456E61626C6520416C6C00003C
:1040000044697361626C6520416C6C00486F6D653A
:1040100020416C6C00000000546561636820416CB5
:104020006C00000053746F7020416C6C0000000045
:104030004E65787400000000252E356600000000F3
:1040400020000000DF00002000FFFF041E01002010
:1040500025730000D9000020D7B90008424244204F
:104060004C4F434B45442100E0010020AFF23001AA
:1040700076E7000002480068002800D0004770473B
:104080000C00002002484068002800D0004770471C
:104090000C00002038B51B48016841F001010160A7
:1040A00018481430016841F480510160164C052213
:1040B000002311462046FDF798FE00230522062125
:1040C0002046FDF792FE0023052207212046FDF73A
:1040D0008CFE4FF4905204212046FEF7E5FF0B487A
:1040E000416821F040014160016821F04001016018
:1040F00040F216310160016841F040010160C06882
:10410000009038BD303802400000024000300140CD
:1041100005498A689207FCD5C8608868C007FCD04A
:10412000C868C0B270470000003001402DE9F04778
:10413000070054D02C4E2B49B06800F5841002F0D3
:1041400083FC0421B06802F0A7FFB060274900F5A6
:10415000841002F079FC0421B06802F09DFFB06089
:104160002448DFF88C90012500EB4718BD421CD194
:10417000B068494600F5841002F066FC0421B0687E
:1041800002F08AFF0024B06008EB840050F8201C85
:10419000B06800F5841002F057FC0421B06802F00A
:1041A0007BFF641CB060082CEEDB6D1C052DDDDB95
:1041B000B0684FF0045100F5841002F045FC042172
:1041C000B06802F069FFB0606FF07B4100F58410C9
:1041D00002F03AFC0421B06802F05EFFB060BDE876
:1041E000F08700000300001FD80100202000000E0F
:1041F00000FFFF0418BB00082DE9F0413C4F3D4C87
:10420000884606463D1D384602F098FB2060284649
:1042100002F094FB606021688842F4D10146A060FE
:10422000284602F0E1FBA0686FF0FF0100F5841062
:1042300002F00AFC0421A06802F02EFFA0602E49C3
:1042400000F5841002F000FC0421A06802F024FFB5
:10425000A0600E2E22D2DFE806F021070A0D10071B
:104260001316191C1C1C1C1FFFF79CFC16E000F009
:10427000C3F913E0FEF796F910E0FEF741FA0DE0FE
:10428000FDF7B2FF0AE000F02FFE07E000F004FCAB
:1042900004E001F06DF901E0FFF71AFA4046FFF77C
:1042A00045FFA0684FF0045100F5841002F0CCFBEC
:1042B0000421A06802F0F0FEA060002100F5841047
:1042C00002F0C2FB0421A06802F0E6FEA0606FF0DD
:1042D000FE0100F5841002F0B7FB0421A06802F093
:1042E000DBFE0146A0602846BDE8F04102F07CBB41
:1042F000E4241000D80100200700002638B5464805
:104300000168464800F092F8401C7BD0434CE068BE
:10431000012803D0424CE07B80B173E0414A002188
:104320003E48FEF705FF012805D13E48D0E90012BE
:104330003D48FDF7A0FD0220E06063E0207AE073D5
:10434000607A092864D2DFE800F0630558071E5838
:1043500025583900052018E040F2F14500231A469F
:10436000212119200095FDF795FD607C01281DD8BD
:10437000607C022841D900231A4623210095192088
:10438000FDF788FD39E040F2445000231A46112120
:104390000090F4E740F2475500231A4621211920E6
:1043A0000095FDF777FD607C012826D900231A4689
:1043B000222119200095FDF76DFDD9E74FF4926594
:1043C00000231A46212119200095FDF763FD607C2A
:1043D000012810D900231A46222119200095FDF743
:1043E00059FD607C022806D900231A462321192092
:1043F0000095FDF74FFD01202072607A10B1C0B228
:10440000401C6072BDE838400349074800F04FB8CF
:1044100007206072F3E7000068B90008A4010020DB
:10442000D4000020BC010020C80100202DE9F0418B
:104430000446C06800250E46022830D00220BDE8A0
:10444000F08160690125401C606120692368421C7D
:10445000226119542169062914D12068027902F0D9
:104460007F02A2600279120604D58278C07802EB3E
:10447000002000E00020801D6060C82802D94FF0B5
:10448000FF30DCE76068814205D100202061012017
:104490000325E06009E0E068012802D105E04FF65D
:1044A000FF77B0470146B842CBD12846C7E770B581
:1044B0000446C0680D4600280FD0A8688047002831
:1044C0000BD0D4E902016A689047A1682068814254
:1044D00000D16068A0600020E06070BD0146014826
:1044E00002F0E8BAC42410003F4A0020116841F4E9
:1044F000A02111604FF47053116800F1010011F414
:10450000003F1CD19842F7D1106820F48030106031
:104510001068C003FCD4106820F48020106010687C
:104520004003FCD4106840F4803010600020116813
:1045300000F1010011F4003F01D19842F7D1106859
:10454000C0F3404000284ED027484030016841F079
:10455000805101602548016841F400410160244810
:1045600040F202710160016801F007010229FAD1ED
:104570001D4808300168016001680160016841F46C
:1045800080510160016821F4F81141F4202101609B
:10459000016821F07C510160016841F08061016097
:1045A000016841F060510160016821F04041016003
:1045B000016841F080410160031F0E4919601168D4
:1045C00041F08071116011688901FCD5016821F00A
:1045D00003010160016841F0020101600168C1F35B
:1045E00081010229FAD17047003802400070004072
:1045F000003C0240052A41072DE9F041964D954CBB
:104600002878204410F8010CFFF7BAFA08B1012706
:1046100000E000272878204410F8010C0B2806D071
:1046200000208E498E4E0978022934D101E0012004
:10463000F7E708B18BA100E08CA18E48FBF7B2FE32
:10464000052206218648FFF76DFA8BA18948FBF702
:10465000A9FE052211218248FFF764FA88A1854846
:10466000FBF7A0FE05221C217D48FFF75BFA002F17
:1046700001D0854801E043F27770C6F8880001D088
:1046800082A100E083A17B48FBF78CFE0522272155
:104690007348FFF747FA2A7880A17648FBF782FE35
:1046A000012231216E48FFF73DFA7E48297800EB60
:1046B00001127DA16F48103AFBF774FE04223521E8
:1046C0006748FFF72FFA7948007802280BD028783E
:1046D0007749204410F8010C01EB001272A16548E3
:1046E000FBF760FE03E073A16248FBF75BFE052267
:1046F0003C215B48FFF716FA714F2978781810F8BB
:10470000012C46F66D50002A07D04FF06F02C6F814
:104710003C2105D14FF0200204E04FF02002F6E7E3
:104720004FF06F02C6F8742102D14FF0200201E071
:104730004FF06F02C6F8C42102D14FF0200201E011
:104740004FF06F02C6F8282201D1024601E04FF077
:104750002002C6F84C2101D1024601E04FF02002B0
:10476000C6F8842101D1024601E04FF02002C6F8CC
:10477000D42101D04FF02000C6F83802514800EB98
:10478000410051A130F9022C3A48FBF70BFE0222FE
:104790004A213348FFF7C6F94C482C7800EB8400D7
:1047A00050F8040C06F0A4FF41EC100B381910F877
:1047B000010CE8B346A153EC102B2E48FBF7F2FD99
:1047C000032257212648FFF7ADF94348297800EB2B
:1047D000810050F8040C06F08BFF41EC100B3FA158
:1047E00053EC102B2348FBF7DDFD03226B211C4803
:1047F000FFF798F93B48297800EB810050F8040C4A
:1048000006F076FF41EC100B34A153EC102B194845
:10481000FBF7C8FD032284211148FFF783F9324DCD
:1048200000244FF41D7724F003003158286800E07D
:104830000DE000F5841002F007F90421286802F069
:104840002BFC241D2860BC42EDD3BDE8F08127A1DC
:10485000B1E70000F0000020DF000020E0000020B1
:104860005C040020456E61626C6500004469736100
:10487000626C650070AB0020486F6D650000000041
:1048800054656163680000001F1FFF0053746F7060
:10489000000000004E657874000000004368256445
:1048A000000000001E01002025730000D900002038
:1048B000D7B90008424244204C4F434B45442100A5
:1048C000180100207E01002025640000AC9F00201C
:1048D000252E346600000000C49F0020252E33667C
:1048E00000000000B89F0020E0010020252E356662
:1048F00000000000124810B5016841F47001016029
:104900001048016841F0010101600E4A002108329F
:10491000116002680C4B1A400260031D0B4A1A60BA
:10492000026822F48022026006480C300160FFF722
:10493000DBFD03494FF000608039086010BD0000C6
:1049400088ED00E000380240FFFFF6FE1030002442
:10495000401A80B2704700001E48016841F40031DF
:1049600001601D4953220A801B4A40F2E731121DA3
:104970001160194A49100C321160174908390A8828
:1049800042F001020A80144910390A8842F060029C
:104990000A80091F0A8842F001020A800E4928395C
:1049A0000A8842F001020A80016841F48031016006
:1049B0000A4820210181018941F00701018100217C
:1049C00001854FF6FF71C162018841F0010101804C
:1049D0007047000044380240284401400040014034
:1049E0000148406A80B2704700400140244808B541
:1049F000016841F0010101602248016821F00101D4
:104A00000160016841F002010160016821F00401C8
:104A10000160016841F008010160016A21F00F01A5
:104A2000891C0162016A21F0F00141F0200101625C
:104A300013481030016841F00801016012494FF03D
:104A4000FF30086010481438016840F20112114329
:104A500001600D490320243908600B482C38016897
:104A600041F00101016000214FF47A720091009839
:104A7000401C00909042FADB03480838016008BDF2
:104A800030380240000002402C0C00400148006811
:104A900000B27047240C00402DE9F041FD4C207815
:104AA000FFF76EF838B96078FFF76AF818B9A078A0
:104AB000FFF766F800B10120F74D002801D0F74854
:104AC00001E043F27770286701D0F5A100E0F6A17C
:104AD000F748FBF767FC02222121EF48FFF722F895
:104AE000F448F5496FF07B43007801282AD01A4634
:104AF000C5F81021022827D01A46C5F84C210328F2
:104B000000D01946ED4EC5F88811306806F0F0FD6A
:104B100041EC100BEAA153EC102BE548FBF742FCEB
:104B200003224821DC48FEF7FDFFE74F46F66D54AF
:104B3000387800280AD04FF06F00C5F8380108D146
:104B4000204608E00A46D3E70A46D6E74FF02000A1
:104B5000F3E74FF02000C5F84801706806F0C8FD83
:104B600041EC100BD6A153EC102BD148FBF71AFCEB
:104B700003225721C848FEF7D5FF7878002806D0D1
:104B80004FF06F00C5F8740104D1204604E04FF0E7
:104B90002000F7E74FF02000C5F88401B06806F068
:104BA000A7FD41EC100BC6A153EC102BC048FBF73E
:104BB000F9FB03226621B848FEF7B4FFB878002855
:104BC00006D04FF06F00C5F8B00104D1204604E0D4
:104BD0004FF02000F7E74FF02000BC4EC5F8C001B1
:104BE000306806F085FD41EC100BB5A153EC102B9D
:104BF000AF48FBF7D7FB03227521A748FEF792FFCA
:104C00003878002806D04FF06F00C5F8EC0104D1C9
:104C1000204604E04FF02000F7E74FF02000C5F8F1
:104C2000FC01706806F064FD41EC100BA4A153EC8C
:104C3000102B9F48FBF7B6FB032283219648FEF713
:104C400071FF7878002806D04FF06F00C5F8240275
:104C500004D1204604E04FF02000F7E74FF0200099
:104C6000C5F83402B06806F043FD41EC100B94A186
:104C700053EC102B8E48FBF795FB032291218648BD
:104C8000FEF750FFB878002806D04FF06F00C5F847
:104C90005C0204D1204604E04FF02000F7E74FF01B
:104CA00020008B4EC5F86C02306806F021FD41EC07
:104CB000100B83A153EC102B7D48FBF773FB0322F1
:104CC0009F217548FEF72EFF3878002806D04FF058
:104CD0006F00C5F8940204D1204604E04FF0200094
:104CE000F7E74FF02000C5F8A402706806F000FD59
:104CF00041EC100B72A153EC102B6D48FBF752FBEB
:104D00000322AD216448FEF70DFF7878002806D015
:104D10004FF06F00C5F8CC0204D1204604E04FF0FC
:104D20002000F7E74FF02000C5F8DC02B06806F07D
:104D3000DFFC41EC100B62A153EC102B5C48FBF73D
:104D400031FB0322BB215448FEF7ECFEB878002863
:104D500006D04FF06F00C5F8040304D1204604E0EC
:104D60004FF02000F7E74FF020005A4EC5F814032B
:104D7000306806F0BDFC41EC100B51A153EC102B38
:104D80004B48FBF70FFB0322C9214348FEF7CAFE3D
:104D90003878002806D04FF06F00C5F83C0304D1E6
:104DA000204604E04FF02000F7E74FF02000C5F860
:104DB0004C03706806F09CFC41EC100B40A153ECD6
:104DC000102B3B48FBF7EEFA0322D7213248FEF7BF
:104DD000A9FE7878002806D04FF06F00C5F874035C
:104DE00004D1204604E04FF02000F7E74FF0200008
:104DF000C5F88403B06806F07BFC41EC100B30A1D1
:104E000053EC102B2A48FBF7CDFA0322E521224868
:104E1000FEF788FEB87800280ED04FF06F00C5F876
:104E2000AC0301D04FF020042B49C5F8BC434FF030
:104E30000000097849B902E04FF02000EFE7274968
:104E4000097811B92649097801B108464FF0640183
:104E500010FB01F04FF00B0190FBF1F0642800DD36
:104E6000642000041F4E00244FF47077C5F8E8005A
:104E700024F003002958306800F5841001F0E4FDA7
:104E80000421306802F008F9241D3060BC42EFD3E1
:104E9000BDE8F081F0000020940B00201F1FFF00F0
:104EA00053746F70000000004578697400000000C2
:104EB00070AB0020DF00002000FFFF04AC9F00204B
:104EC000252E34660000000018010020DC9F002021
:104ED000E89F0020F49F0020E8000020E700002069
:104EE000E6000020E00100202DE9F041754C7448F7
:104EF0002178084410F8010CFEF742FE00B10120B1
:104F0000714E002801D0714801E043F2777030679C
:104F100001D06FA100E070A17148FBF743FA0322B2
:104F200021216948FEF7FEFD22786EA16C48FBF74F
:104F300039FA012228216448FEF7F4FD6B482178F4
:104F400000EB810050F8040C06F0D2FB41EC100B92
:104F500067A153EC102B6248FBF724FA0322472188
:104F60005948FEF7DFFD64492078014411F8012C0F
:104F700046F66D51002A07D04FF06F02C6F8342173
:104F800005D14FF0200204E04FF02002F6E74FF089
:104F90006F02C6F86C2102D14FF0200201E04FF001
:104FA0006F02C6F8A42102D14FF0200201E04FF0B9
:104FB0006F02C6F8DC2101D10A4601E04FF0200261
:104FC000C6F8442101D10A4601E04FF02002C6F89C
:104FD0007C2101D10A4601E04FF02002C6F8B4213D
:104FE00001D04FF02001C6F8EC11444901EB8000DC
:104FF00050F8040C06F07CFB41EC100B3CA153EC88
:10500000102B3748FBF7CEF9032255212E48FEF727
:1050100089FD3B48217800EB810050F8040C06F034
:1050200067FB41EC100B32A153EC102B2C48FBF723
:10503000B9F9032263212448FEF774FD3148217831
:1050400000EB810050F8040C06F052FB41EC100B11
:1050500027A153EC102B2248FBF7A4F9032271215E
:105060001948FEF75FFD28490020097829B927492A
:10507000097811B92649097801B10846642110FB65
:1050800001F00B2190FBF1F0642800DD64200004A6
:10509000204D00244FF4F877C6F8E80024F0030010
:1050A0003158286800F5841001F0CEFC04212868EE
:1050B00001F0F2FF241D2860BC42EFD3BDE8F0816F
:1050C000F0000020DF000020A40900201F1FFF00C7
:1050D00053746F7000000000457869740000000090
:1050E00070AB00204368256400000000AC9F0020E6
:1050F000252E34660000000018010020DC9F0020EF
:10510000E89F0020F49F0020E8000020E700002036
:10511000E6000020E00100202DE9F8431D4F4FF488
:10512000801816460D46C7F81880C7F81880C7F8CB
:105130001880010C41F080018DF80210010A8DF8F1
:1051400001108DF800000224E94619F80400FEF76A
:10515000DFFF641EF9D500240FE0285D641CFEF714
:10516000D7FF285D641CFEF7D3FF285D641CFEF7A3
:10517000CFFF285D641CFEF7CBFFB442EDD9C7F822
:105180001880C7F81880C7F818801020B86120462A
:10519000BDE8F883000002400248008800F04000AB
:1051A000704700000010014070B504464348016894
:1051B00041F010010160414814380168404A114330
:1051C0000160404D0023072209212846FCF70DFE0F
:1051D000002307220A212846FCF707FE3A4988895E
:1051E00020F00C00888140F2D920088100230B8236
:1051F0008B82888914B14FF4A05200E00022104342
:1052000088818A89012C56D0002002438A818889AE
:1052100040F400508881888A40F0C0008882888AE3
:1052200040F4407088822948026822F0010202603E
:105230000268D207FCD1026822F060620260026854
:1052400042F000620260026842F4886202601E4C12
:105250001E48241D08300460001F03601B48783876
:10526000026822F0010202600268D207FCD10268E3
:1052700022F060620260026842F00062026002682E
:1052800042F4A0620260114A703A14600F4B104A57
:105290006C3B1A601A150D4B743B1A600A8822F099
:1052A00040020A808A8942F00C028A81016841F03A
:1052B0000101016070BD4FF40070A6E74438024060
:1052C000010040000000024000100140B8640240AC
:1052D00024A000200A4800680A4AC0F580601168CE
:1052E000884202D14FF6FF7070470748405C491C66
:1052F0001160B1F5806FF7D1002111607047000097
:10530000446402409001002024A000200E4A13684B
:1053100023F0010313601368DB07FCD10A4B0C3345
:1053200018600948001D01600848018821F040010B
:10533000018005494FF00060AC390860106840F00A
:105340000100106070470000B86402400010014086
:105350000248008800F04000704700000044004010
:105360003D4810B5016841F4003101603A481038F9
:1053700001683A4A11430160394C00230722022197
:105380002046FCF732FD0023072203212046FCF7CC
:105390002CFD344940F26D1008803248002308305B
:1053A0000380001D03800A1D118841F40051118003
:1053B000018841F0C00101802B48D0F8A01021F0F5
:1053C0000101C0F8A010D0F8A010C907FBD1D0F897
:1053D000A01021F06061C0F8A010D0F8A01041F03A
:1053E0000061C0F8A010D0F8A01041F48861C0F8A6
:1053F000A0101C4C241FC0F8A840C0F8A430D0F85E
:10540000881021F00101C0F88810D0F88810C90771
:10541000FBD150F8881F21F060610160016841F004
:1054200000610160016841F4A061016084600F497E
:10543000C1604FF4007141600A4908390B8823F0BC
:1054400040030B80118841F00C011180016841F08C
:105450000101016010BD0000403802400100200041
:1054600000000240084400400060024024A40020E4
:105470000E4AD2F8A03023F00103C2F8A030D2F8CF
:10548000A030DB07FBD1C2F8AC00C2F8A41008487A
:10549000018821F0400101804FF40010D060D2F863
:1054A000A00040F00100C2F8A00070470060024078
:1054B0000044004010B14FF0005001E04FF40050A4
:1054C000014908607047000018040240054801685F
:1054D00041F0020101604FF490520D210248FDF7A6
:1054E000E3BD0000303802400004024020B14FF01C
:1054F00000500349086070474FF40050F9E700007E
:105500001804024005490028086802D040F08000D5
:1055100001E020F08000086070470000343802404D
:1055200005490028086802D040F0800001E020F022
:1055300080000860704700001438024070B50A48C7
:10554000016841F0010101600415084D23460A225B
:105550000B212846FCF749FC23462846BDE870404D
:105560000A220C21FCF741BC303802400000024006
:105570002DE9FC41554C56A157482278FAF712FF05
:1055800001221A215548FEF7CDFA55482178534D8E
:10559000084410F8010C002807D04FF06F00C5F840
:1055A000AC0005D146F66D5004E04FF02000F6E760
:1055B0004FF02000C5F8BC004A4801780B291BD0E9
:1055C0000C2919D02020C5F8CC000C2917D0202098
:1055D0002022C5F8EC20C5F8FC20C5F80C21C5F840
:1055E0001C21C5F82C21C5F83C21C5F8DC003E483B
:1055F00000240A23006807E047F22F30E3E7322057
:10560000E6E790FBF3F0641C0028FAD1661E374FE2
:105610004FF02D08092906D00A291FD00B293FD0A9
:105620000C2927D13EE0AA662520C5F8AC20C5F894
:10563000BC002FA12848FAF7B5FE04221E212748F6
:10564000FEF770FA97ED000A22462CA1BDEEC00AC3
:10565000214810EE103AFAF7A5FE01E029A122E058
:10566000032225211D48FEF75DFA714205EB011169
:10567000C1F83C81264E00244FF4A07724F00300AB
:105680002958306800F5841001F0DEF904213068F3
:1056900001F002FD241D3060BC42EFD3BDE8FC8167
:1056A0001CA100E01EA10C48FAF77CFE04221E217A
:1056B0000A48FEF737FA386806F01AF8CDE9000113
:1056C000621C1BA10448FAF76DFEC9E7DF00002049
:1056D000436825640000000070AB0020540F0020D8
:1056E00018010020E000002014010020100100201B
:1056F0004272696768746E657373000025302A64AE
:1057000000000000537465702073697A6500000022
:10571000E001002056656C6F636974790000000039
:10572000416363656C65726174696F6E00000000AF
:1057300025302A2E3366000003B4019841000098FA
:1057400050EAC12018BF04204A0D18BF40F00100E4
:1057500040F2FF72B2EB515F08BF40F00200012837
:1057600008BF052002B07047F0B54C09550901F09B
:105770001F0602F01F01022C1CD2022D1AD24FF07C
:10578000010C491C0CFA01F77F1E0CFA06F1491EA8
:10579000C943AC4200D1394000EB840216690BB119
:1057A0000E4300E08E4321461661641C0026A4B21D
:1057B000A942EAD3F0BD30380A2801D2012070474F
:1057C0000020704770B5104AFF2302EB800252F8A8
:1057D0002140237752F821400123A46963630B4ED3
:1057E000002542F8215056F82020D2F818448B406A
:1057F0009C43C2F8184456F820004FF4A06202EB14
:1058000041114550284670BD98000020ECB80008B2
:10581000017800EB8102516841B1002353600278A6
:10582000521CD2B202701D2A00D103700846704784
:10583000427800EB820251604178491CC9B2417044
:105840001D2901D100214170704700002DE9F74F5B
:1058500004465048884600EB8401DFF83C9151F83B
:1058600028504FF4A06259F8240002EB4811D5F8F3
:1058700018A043588B4603274FF4A16101EB48164B
:10588000B7EB937F2BD0A97F03290ED110210161A3
:10589000002703E0012001F059FF7F1C59F8240084
:1058A0000069C00601D5C82FF4D359F824304FF051
:1058B000404243F80B20002709E04169C90600D5A2
:1058C000006A012001F042FF7F1CC82F07D259F85F
:1058D000240081598907F0D54169C906EDD459F8EA
:1058E00024004F4681598151A87F032816D0E878BB
:1058F000012805D0202057F824100861002605E073
:105900006020F8E7012001F021FF761C57F8240001
:105910000069800613D5C82EF4D310E057F8241080
:1059200010200861002603E0012001F00FFF761C23
:1059300057F824000069C00601D5C82EF4D34146AB
:105940002046FFF73FFF1549C4EB04106A7F01EBC7
:10595000C001002341F82230697F142906D30D4984
:10596000091D51F82420521E41F824200A22CAF8A9
:105970002420AB610299002909D0084903B078318D
:1059800001EBC0005146BDE8F04FFFF751BFBDE845
:10599000FE8F000098000020ECB80008308E002038
:1059A0002DE9F05F8A464FF000092E4983464D46A7
:1059B0004C4601EB8B0801E0641CE4B258F824006B
:1059C00010B1002CF8D049E0ACBB2749CBEB0B1051
:1059D000002701EBC00656F8251041B3087810B136
:1059E000086920B123E0002046F825001FE0087F69
:1059F000FF281CD18869406B012802D017E0641C85
:105A0000E4B258F8240008B1002CF8D0012C21D0C1
:105A100091F8200080B10320C87756F8251022465F
:105A2000584600F063F8641C09F10109E4B26D1CEA
:105A3000142D05D006E011E0584600F017F8ECE709
:105A4000DAF800501E2D00D114257F1C1E2F01D224
:105A5000002CC0D0142D01D3CAF800504846BDE830
:105A6000F09F000098000020308E002070B50C469A
:105A7000CB788A69C988012B03D1137C0BB1528A78
:105A800006E0D368D26A9A1A8A4201D9E16200E03C
:105A9000E2620322E277A27FA36B012A0FD0032ADE
:105AA00012D023F40042A263227D02B10222E36AF3
:105AB0008B420CD95D186D1EB5FBF1F108E023F4A3
:105AC00000430322A363F2E743F40042EBE7012122
:105AD00021855107228D41EAC2411943E16302F059
