:020000040800F2
:10000000283E0724450400084D0400084F0400085A
:1000100051040008530400085504000800000000C3
:10002000000000000000000000000000570400086D
:1000300059040008000000005B0400085D0400088B
:100040005F0400085F0400085F0400085F04000804
:100050005F0400085F040008514E00085F040008B8
:100060005F0400085F0400085F0400085F040008E4
:100070005F0400085F0400085F0400085F040008D4
:100080005F0400085F0400085F0400085F040008C4
:100090005F0400085F0400085F0400085F040008B4
:1000A0005F0400085F0400085F0400085F040008A4
:1000B0000F2901085F0400085F0400085F040008BE
:1000C0005F0400085F0400085F0400085F04000884
:1000D0005F0400085F0400085F0400085F04000874
:1000E0005F0400085F040008000000005F040008CF
:1000F0005F0400085F0400085F0400085F04000854
:100100005F0400085F0400083931010865D9000860
:100110005F0400085F0400085F04000869310108FB
:100120005F0400085F0400085F0400080D49000830
:100130005F0400085F0400085F0400085F04000813
:1001400000000000000000000000000000000000AF
:100150005F0400085F0400085F0400085F040008F3
:100160005F0400085F0400085F0400085F040008E3
:100170005F0400085F0400085F040008000000003E
:100180005F0400085F0400085F0400085F040008C3
:100190005F0400085F0400085F0400085F040008B3
:1001A0005F0400085F0400085F0400085F040008A3
:1001B0005F0400085F0400085F0400085F04000893
:1001C0005F0400085F0400085F0400085F04000883
:1001D0005F0400085F0400085F0400085F04000873
:1001E0005F0400085F0400085F0400085F04000863
:1001F0005F0400085F040008494500085F04000828
:10020000554700085F0400085F0400085F04000809
:10021000512401085F0400085F0400085F0400081F
:100220005F0400085F0400085F040008000000008D
:100230005F0400085F040008000000005F0400087D
:100240005F0400085F0400085F0400085F04000802
:100250005F0400085F0400085F0400085F040008F2
:100260005F0400085F0400085F0400085F040008E2
:100270005F0400085F0400085F040008000000003D
:100280005F040008000000005F0400080000000098
:10029000000000005F04000800F002F800F0C0F861
:1002A0000AA090E8000C82448344AAF10107DA45D1
:1002B00001D100F0B5F8AFF2090EBAE80F0013F063
:1002C000010F18BFFB1A43F001031847347C0100EB
:1002D000747C01000A444FF0000C10F8013B13F04D
:1002E000070408BF10F8014B1D1108BF10F8015B8F
:1002F000641E05D010F8016B641E01F8016BF9D182
:1003000013F0080F1EBF10F8014BAD1C0C1B09D1D8
:100310006D1E58BF01F801CBFAD505E014F8016B4A
:1003200001F8016B6D1EF9D59142D6D370470000DC
:10033000103A24BF78C878C1FAD8520724BF30C811
:1003400030C144BF04680C607047000000230024E3
:1003500000250026103A28BF78C1FBD8520728BFD5
:1003600030C148BF0B6070476E2900F01D847029B2
:1003700000F07D85662916F0D485652916F0D185B3
:10038000672916F0CE85612916F0CD8503681B0A12
:1003900028BF41F08001692900F0CA83642900F078
:1003A000C783752900F0C4836F2900F00A85782976
:1003B00000F04985E92900F0A584E42900F0A28431
:1003C000F52900F09F84EF2900F00785F82900F057
:1003D00048850368DB0928BF41F08001632900F0EC
:1003E0002684732900F02B84E32901F05184F3293A
:1003F00001F05684002070471FB516F00FFD01F084
:1004000001F804000020002116F096FC401C6060FA
:100410000020002116F07AFCE0601FBD10B510BD71
:1004200001F092FE1146FFF7E7FF15F0BBFE02F068
:1004300023F903B4FFF7F2FF03BC02F039F900001F
:1004400040BA70470948804709480047FEE7FEE781
:10045000FEE7FEE7FEE7FEE7FEE7FEE7FEE7FEE774
:1004600004480549054A064B70470000452301082A
:100470009902000828340724283E07242836072438
:10048000283607247CB51D4616460C00009001D086
:100490002044401E074B7B442A4669460190304663
:1004A00000F09BFB05461CB10020694600F0A8FB4C
:1004B00028467CBD710700000FB41CB5084B06AA86
:1004C0007B4469460090059800F087FB04460020B5
:1004D000694600F095FB20461CBC5DF814FB00004B
:1004E0003D07000070B5044685690068C10601D566
:1004F000302600E02026C00707D070BDD4E90121D6
:1005000030469047206A401C20626D1EF6D570BDB3
:1005100070B5044685690078C00707D170BDD4E97D
:10052000012120209047206A401C20626D1EF6D5D4
:1005300070BD70B50C460546012A05D028788006A6
:1005400000D5EA69002302E0012305E05B1C934229
:1005500002D2E05C0028F9D1A869E618C01AA861A7
:10056000286A184428622846FFF7BCFF04E0D5E952
:10057000012114F8010B9047B442F8D32846FFF745
:10058000C7FF70BD2DE9F05F894604464FF0000AB1
:10059000DFF874B1FB44C0F820A02046E16888472A
:1005A000002874D0252806D0D4E901219047206A7C
:1005B000401C2062F1E700265F462046E16888473C
:1005C0002028054607DB312D05D2781910F8200CBC
:1005D00008B10643F1E7B00701D526F00406C4F8D8
:1005E0001CA00027C4F818A02A2D09D0284615F011
:1005F000FFFB38B304EB8708303DC8F8185019E00A
:1006000059F8041B204604EB87029161E168884792
:10061000012F054618D1E069002820DA26F02006CF
:100620001DE0D8F8180000EB800005EB40003038E2
:10063000C8F818002046E1688847054615F0D8FB41
:100640000028EED1012F0AD02E2D08D12046E168D6
:1006500088477F1C0546022F46F02006C4DBA069B0
:10066000002803DA404246F00106A061F00701D0FD
:1006700026F010066C2D0BD0682D09D04C2D39D0EA
:100680006A2D35D0742D35D07A2D33D016E038E070
:10069000E1682F4620468847B842054609D16C2FAD
:1006A00026D04FF48060E16806432046884705461F
:1006B00004E06C2F1AD04FF4807006430DB3A5F1FF
:1006C0004100192802D8203546F400664A462946DA
:1006D000204626604E46FFF747FE80B101280BD02A
:1006E000F61D26F0070000F1080956E74020E4E770
:1006F0008020D8E70020D6E706F104094DE7284618
:1007000052E7206ABDE8F09FD76E01000FB400B534
:100710008DB010A9099000910B904FF0FF300A9016
:1007200000200C90064878440690064878446A46B3
:1007300007900F9909A800F035FE0DB05DF814FB85
:100740009B0C0000B30C00002DE9FF5F1D464FF02D
:10075000FF3B91464FF000085F46D5E90146A96985
:1007600001987F1C8847296A824688470028F6D16D
:10077000BAF1FF3F0CD0002E24F4C06419DD6006EE
:1007800014D5BAF12B0F09D0BAF12D0F0ED103E019
:10079000584604B0BDE8F09F44F48064A96901980C
:1007A0007F1C8847761E8246002E02DDBAF1300F8C
:1007B00003D0B9F1000F26D032E0A969761E019866
:1007C0007F1C44F400748847002E824605DDBAF190
:1007D000780F06D0BAF1580F03D0B9F1000F10D03E
:1007E0001EE0B9F1000F02D0B9F1100F18D1A969BC
:1007F000761E01987F1C24F40074884782461020DE
:1008000002E0082000E00A20814609E0A96908FB0F
:100810000908761E01987F1C44F4007488478246BC
:10082000002E05DD4946504600F02CFB0028EDDA8D
:10083000E96901988847A00502D46FF00100A8E794
:10084000E00725D1600613D5600502D5C8F1000088
:1008500000E0404629680A1D2A600968220501D582
:10086000087015E0220701D5088011E008600FE04C
:100870002868011D29600068210502D580F80080E4
:1008800006E0210702D5A0F8008001E0C0F8008052
:1008900038467EE72DE9FF5F4FF000089946144681
:1008A00046469169D2E901A7DDF838B0019888473A
:1008B000054659EA0B0005D009E0A1690198761CAC
:1008C00088470546216A284688470028F5D1681CD4
:1008D00003D05FEACA7005D015E04FF0FF3004B0D6
:1008E000BDE8F09F2068011D2160D0F800800AE07B
:1008F0005FEACA7001D108F8015BA169761C019812
:100900007F1E88470546002F1ADD681C18D0B9F1F4
:10091000000F0DD0E81705EBD060421120F01F004A
:1009200059F822102A1A012090400142E0D107E034
:10093000BBF1000FDCD12846216A88470028D7D0B8
:10094000E16901988847BBF1000F07D1002E05DD52
:100950005FEACA7002D1002188F80010A068B8428E
:1009600003DDBBF1000F03D017B16FF00100B6E754
:100970003046B4E730B505460B462A4613F8014B1E
:1009800012F8010B08B1A042F8D01CB1002802D027
:100990006D1CF1E7284630BD032A40F2308010F08C
:1009A000030C00F0158011F8013BBCF1020F62440A
:1009B00098BF11F801CB00F8013B38BF11F8013B9B
:1009C000A2F1040298BF00F801CB38BF00F8013B48
:1009D00011F0030300F02580083AC0F0088051F8B8
:1009E000043B083A51F804CBA0E80810F5E7121DC3
:1009F0005CBF51F8043B40F8043BAFF30080D207E2
:100A000024BF11F8013B11F801CB48BF11F8012BAD
:100A100024BF00F8013B00F801CB48BF00F8012BD0
:100A2000704710B5203AC0F00B80B1E81850203A5A
:100A3000A0E81850B1E81850A0E81850BFF4F5AF7E
:100A40005FEA027C24BFB1E81850A0E8185044BF08
:100A500018C918C0BDE810405FEA827C24BF51F875
:100A6000043B40F8043B08BF7047D20728BF31F869
:100A7000023B48BF11F8012B28BF20F8023B48BFBA
:100A800000F8012B704700004FF0013C50F8042B98
:100A900051F8043B9A4215D1A2EB0C03934313EA9D
:100AA000CC130BD150F8042B51F8043B9A4209D1D6
:100AB000A2EB0C03934313EACC13E7D04FF00000F2
:100AC000704700BFD01A01BAB1FA81F101F01801E4
:100AD00022FA01F0CB40C1F12001DBB2C0B2C01A52
:100AE0002CFA01F3D11A914311EAC311E6D17047F0
:100AF00070477047704710B500F088FC006810BD63
:100B000010B5044600F082FC046010BD09684A0577
:100B100001D540B27047C905FCD500B270470968DD
:100B20004A0501D5C0B27047C905FCD580B27047EF
:100B30002DE9F0410646002410687529314616A5B6
:100B400010D0FFF7E3FF002802DA404213A507E0C8
:100B500031688A0701D512A502E0490704D511A51D
:100B6000012401E0FFF7DBFF00210A2206F1240740
:100B700009E0B0FBF2FCB0FBF2F302FB1C003030EA
:100B800078541846491C0028F3D123462A4630469B
:100B9000BDE8F04100F08CBC000000002D0000001A
:100BA0002B0000002000000011680268006A530555
:100BB00001D508700AE0D30501D5088006E01306C8
:100BC00003D5C217C1E9000200E0086001207047A8
:100BD00001694A1C02610878704700B58FB0CDE901
:100BE00001310021059105497944CDE903101146F1
:100BF0006846FFF7C7FC0FB000BD0000E5FFFFFF30
:100C00000A6802F8010B0A607047D1E900239A4292
:100C100002D2531C0B601070704710B5436913B1BA
:100C2000AFF3008001E0FFF784FC012010BD1278D3
:100C300000F124010A7000224A700122EDE71168D8
:100C40004FF0FF32E9E700002DE9FF5F15468A46C5
:100C50000446DFF8AC80F8440027D8E900103E468F
:100C6000CDE9001010E03AF816106A4602A801F02B
:100C700047FA411C07D02178890603D5E269391863
:100C800091420DD80744761C2078800602D5E06991
:100C9000B84205DDAE42E6DB3AF816000028E2D1A4
:100CA000A069C01BA0612046FFF71CFCD8E900101A
:100CB000CDE90010002017E03AF818106A4602A8A3
:100CC00001F01EFAB0F1FF3F81460BD000250DF177
:100CD000080B05E0D4E901211BF8050090476D1CC5
:100CE0004D45F7D308F10100B0428046E4DB206AAD
:100CF000384420622046FFF70BFCBDE8FF9F000050
:100D0000666801002DE9F0418046D21D22F00702FD
:100D10000025D2E90002F52915A614D0011E72F1B2
:100D2000000106DA0023D0EB030063EB020211A6F8
:100D300008E0D8F800108B0701D50FA602E049079C
:100D400001D50EA601251146002408F1240704E070
:100D500000F060FB30323A55641C50EA0102F7D1D2
:100D60002B46324621464046BDE8F04100F0A0BB8C
:100D7000000000002D0000002B00000020000000FB
:100D800030B4002100F1240408E002F00705D20885
:100D9000303542EA4372DB086554491C52EA0305C8
:100DA000F3D10468002310A2250707D5A40600D4B8
:100DB00021B1C46901230DA2641EC46130BC00F0DE
:100DC00077BB10B5044621461068FFF7A8FE02461F
:100DD0002046BDE810400023D2E7D21D22F00701D3
:100DE000D1E90023CCE70000000000003000000043
:100DF000F0B40D460188090502D5214C7C4402E07F
:100E00001F4C7C440E34002100F1240608E002F05F
:100E10000F071209E75D42EA03721B097754491C68
:100E200052EA0307F3D102780023120704D5702D8C
:100E300006D009B1022311342246F0BC00F038BBC1
:100E400001231034F8E770B504460D4621461068BA
:100E5000FFF765FE024629462046BDE870400023A4
:100E6000C6E7D21D22F00703D3E90023C0E70368D9
:100E7000126843F0200303600823C3610023B7E72F
:100E8000C86601003A2800D2303820F02002412AFA
:100E900001D3A2F13700884201D34FF0FF307047F1
:100EA0002DE9FF4F06468BB00878FF2806D0491C75
:100EB0002D2805D000244FF0000908E000200CE0A8
:100EC0000124F8E709EB8903491C00EB4309087882
:100ED000FF28F7D114B1C9F1000081461078002530
:100EE0002C46AA4629462D2801D02B2804D1521C75
:100EF0002D2813D0002082468B461078FF280FD073
:100F00004FF0000C0A21521CA5FB017804FB018163
:100F100005FB0C11C5194BEB0104EEE70120EAE7D4
:100F2000002108464FF00000BAF1000F02D000EB9C
:100F300080004008C0F38157012F01DD4FF0FF37DB
:100F40000E9955EA040009EB01080BD04FF0020995
:100F500018F5FA7F16DA4FEACA70002F706008DDC4
:100F6000012007E04FEACA70C6E900B00FB0BDE843
:100F7000F08F0020306000F049FAC0F8009018218E
:100F8000084616E0B8F5FA7F18DD002F02DAF748B8
:100F9000784401E0F6487844D0E90010C6E9001032
:100FA00040EACA70706000F031FAC0F80090142175
:100FB00008460FB0BDE8F04F15F0B0BF002108465D
:100FC0004FF00000B8F10001099002DAC7F1000209
:100FD00000E03A4601DAC8F1000106A801F01EF867
:100FE00006AB93E8070003AB83E8070044F23E003A
:100FF0005BEA04010090584604D144F21E012C46DD
:101000005D460091210C0904014306D10099240496
:1010100044EA15442D041039009104F07F41014346
:1010200006D10099240244EA15642D020839009182
:1010300004F07041014306D10099240144EA15747B
:101040002D01091F009104F04041014306D1009990
:10105000A40044EA9574AD00891E009104F000419B
:10106000084304D100986D196441401E00904FF070
:1010700001033A466846B8F1000FCDE9014503A9DE
:1010800002DD01F01AFE01E001F0EDFDBAF1000F02
:1010900004460D4601D084F00044002108464FF07C
:1010A0000000099940F2FF77484010F00C0F07D17B
:1010B00024F00040284303D0C4F30A50B84212D1B0
:1010C00000F0A4F9C0F80090C4F30A50B8420AD165
:1010D000A8487844D0E90010C6E9001004F00041A7
:1010E0000843706042E7C6E900543FE72DE9FF4F2F
:1010F0001F464FF0000A4FF0FF38454691B0D7E940
:101100000146CDF83CA000F07DF9C0680168405C64
:101110001090B96912986D1C8847396A81468847D2
:101120000028F6D1B9F1FF3F0AD0002E24F4D06494
:1011300011DDB9F12B0F08D0B9F12D0F0BD102E061
:10114000404615B013E744F48064B96912986D1CE9
:101150008847761E8146600504A901D52D2000E050
:101160002B20002E01F1010B0DF130088DF810003D
:101170003FDDB9F1690F08D0B9F1490F05D0B9F1D8
:101180006E0F02D0B9F14E0F1CD13B4601A800955D
:1011900080E85002DDE912126FF0020015F029FF1D
:1011A000C11CCED10EE0B96912986D1C88478146EA
:1011B0001398761E44F4007405600F98401C002EAE
:1011C0000F9016DDB9F1300FEDD0B9F1780F02D0E4
:1011D000B9F1580F0DD10F9801280AD13B46CDE93E
:1011E0000054DDE91212001F029615F000FFC11C29
:1011F000A7D1109989453ED144F0800406E01399A7
:10120000681CAAF1010A44F400740860B9696D1CF5
:101210001298761E884730288146F0D02BE010992E
:10122000894505D1200603D4761E44F0800418E0D9
:10123000484614F0DDFD08B3761E0DF123018B4501
:1012400044F4007408D2A9F130000BF8010B200619
:1012500007D5AAF1010003E0200602D40AF101003B
:101260008246A00502D51399681C0860B9691298D6
:101270006D1C88478146002ED1DC53E0002E51DDE5
:10128000B9F1650F02D0B9F1450F4BD1A00549D591
:10129000B9696D1C1298761E24F440748847002E9C
:1012A00081460CDD2B2804D0B9F12D0F07D144F471
:1012B0008074B96912986D1C8847761E8146E005D6
:1012C00001D52D2100E02B2108F8011BCDF800806D
:1012D00021E0761E0DF13901884544F400740CD2EA
:1012E000A9F1300010F0FF0088F8000002D1009949
:1012F000884509D908F1010806E0E00501D51E4836
:1013000001E042F20F708246B96912986D1C88475D
:10131000814613980560002E04DD484614F068FDF0
:101320000028D6D1F96912988847FF2053468BF8D8
:10133000000088F8000000200A900B9004AA0CA975
:101340000AA8FFF7ADFDA00502D46FF00100F8E692
:1013500014F0240F12D0E0071CD13868DDE90A121E
:10136000031D3B600068C0E9001213E0B46F010088
:10137000A66F01006A6E0100F1D8FFFF0AA9684656
:1013800014F024FCE00705D13868009A011D39608B
:10139000006802602846D4E60268114413780160B0
:1013A00018467047D1600549794451610449794430
:1013B000116200211161114600F076BCEDFFFFFFC4
:1013C000ED000000426842B1016811F8013B23B111
:1013D000521EC0E90012184670470121C160881EE4
:1013E000704742685AB1C368016843B983688B4249
:1013F00005D0491E521CC0E90012002070474FF072
:10140000FF30704700487047E433072400487047B6
:10141000C433072430B5B0F10A024FEA900E71F1DF
:1014200000034EEA817EB0EB0E0061EB91014FEAC2
:10143000101E4EEA017E10EB0E0041EB11114FEA37
:10144000102E4EEA016E10EB0E0041EB11214FEA17
:10145000104E4EEA014E10EB0E0041EB11414018C8
:1014600041F100014FEAD00040EA41704FEAD1015A
:1014700010EB80054FEA810444EA907444EB0104C8
:101480006D1944EB0404521BA3414FF0000348BF05
:101490000A3200D530BD401C41F1000130BD10B50D
:1014A000044600F077FE0068005D00F0010010BD0A
:1014B0002DE9F0470D4699469246044600F124086E
:1014C0000168880604D5E06921F01001216000E080
:1014D0000120A84201DD471B00E00027A1697A191D
:1014E00002EB0900081AA0612078C00602D4204649
:1014F000FEF7F8FF002608E0D4E901211AF80600FB
:101500009047206A401C761C20624E45F4DB207810
:10151000C0060AD52046FEF7E5FF06E0D4E9012122
:1015200030209047206A401C2062381EA7F1010736
:10153000F4DC07E0D4E9012118F805009047206A9F
:10154000401C2062281EA5F10105F3DC2046FEF7B1
:10155000DFFF2078000602D50220BDE8F0870120D9
:10156000FBE770472DE9FF4F0C461E464FF0FF3753
:101570008BB0D2E90001DDF860800A908A46C1F3A1
:101580000A5505B93D46002108464FF00000BAF162
:10159000000F00F4400005DA00EB80004FF440013A
:1015A00001EA50004FEA9059B9F1010F00DDB94648
:1015B0000A9850EA4A000ED044F61050A5F2FF35C2
:1015C00045432F14B8F1000F1ED07542291E1EDDB1
:1015D000C9F100021CE0B8F1010F4FF0000001D08A
:1015E000302103E0F24305E02154401CB042FBDB14
:1015F00030460022002121540B99C1F80880C1E92E
:1016000000200FB0BDE8F08FBD1B6D1CDEE74A4621
:1016100000DA694206A800F001FD06AB93E8070076
:1016200003AB83E8070050460A9901F048F88DE8BB
:101630000700A0F500501F3800900398002D0ADD28
:1016400042F21F014A460844002303A9039068465A
:1016500001F0F4FA09E0A0F500504A461F380023D3
:1016600003A90390684601F013FB8DE8070000040E
:10167000000C03D04FF0FF30410800E01046B8F1F5
:10168000000F03D00022009215461EE0751E05D4FF
:10169000FFF7C0FE303262556D1EF9D5B346012208
:1016A000084302D000227F1C04E02078302801D1BA
:1016B00000227F1E002A099784D01DE0112D07DA31
:1016C000FFF7A8FE303262556D1C50EA0102F5D1D9
:1016D000084302D00098C8B10EE00021681E05E062
:1016E000235C625C63542254401E491C8142F7DB38
:1016F000AB46A81B401E0990002004F80B000B9875
:10170000099AC0F80880C0E9002B7AE711264FF04B
:10171000000857E72DE9F04F88460446D21D22F015
:10172000070191B0D1E90001CDE90A0113F07AFD7A
:1017300002460B98C00F01D02D2007E020688107DA
:1017400001D52B2002E0202101EAC000032A0990E4
:1017500001D0072A05DB03464146204600F022FD62
:101760000BE12078800601D5E06900E00620B8F1A1
:10177000650F814606D0B8F1660F18D0B8F1670F33
:1017800070D131E00020B9F1110F009001DB11237D
:1017900001E009F101030AAA01A90CA8FFF7E2FE82
:1017A000DDE90C70002609F10105834647E00120C0
:1017B0004B4600904FF000470AAA01A90CA8FFF77A
:1017C000D1FEDDE90DB00C995D46002610B909F196
:1017D00001000D18B9EB050003D4C0F1FF3609F183
:1017E0000105A5EB09002BE0B9F1010F01DA4FF07B
:1017F00001090020B9F1110F0090484601DD1123C5
:1018000000E003460AAA01A90CA8FFF7ABFEDDE938
:101810000C704D4600268346207800070AD4AB455D
:1018200000DA5D4601A8012D04DD411911F8011C03
:10183000302907D04F4502DA17F1040F04DA0120EE
:1018400082460FE06D1EEEE7002F02DCED1B3E44EA
:1018500003E0781CA84200DD7D1CB81B00F1010AE2
:101860004FF000472078000703D4AA4501DB4FF072
:10187000FF3A0021B7F1004F0DF143088DF84310F6
:1018800024D002202B23002F01DA7F422D230A21AE
:10189000021EA0F1010000DC5FB197FBF1FC97FB99
:1018A000F1F201FB1C7C17460CF1300C08F801CD5D
:1018B000EEE7A8F1010003702188090501D5452153
:1018C00000E06521A0F1010800F8011C09980FA9AA
:1018D000A1EB0807FF1D00B10120411901EBEA70DF
:1018E000A1693844081A401EA0612078C00602D4BD
:1018F0002046FEF7F7FD099828B1D4E90121904769
:10190000206A401C20622078C00622D52046FEF7BF
:10191000E9FD1EE0002E04DBB34502DD01A8805D79
:1019200000E03020D4E901219047206A401C206269
:10193000761CAAF101005FEA000A0AD1FFF762FDF6
:10194000C0680168405CD4E901219047206A401CCE
:101950002062281EA5F10105DCDC07E0D4E90121A5
:1019600018F8010B9047206A401C2062381EA7F12E
:101970000107F3DC2046FEF7CBFD032011B041E662
:101980002DE9F04F04460D46D21D22F0070089B024
:10199000D0E900974846394613F044FC0246F80F58
:1019A00001D02D2307E02068810701D52B2302E019
:1019B000202101EAC0038DF820300BB1012000E0A6
:1019C0000020032A824601D0072A04DB294620464C
:1019D00000F0E8FB3FE12078800601D40D2500E00F
:1019E000E569C7F30A560D2D49DA00214FEA175B66
:1019F00008464FF00000002F00F4400007DA00EB2B
:101A000080004FF4400100EBD07001EA60008115C6
:101A1000012901DD4FF0FF3100224FEA850CBCF1B6
:101A2000180F06D31346ACF118004FF08052C24095
:101A300003E04FF4801323FA0CF30CF10C0CBCF10F
:101A4000200F04D3ACF1200C09FA0CF001E007FAE6
:101A50000CF000294FF0004801DD18B90FE00ED15D
:101A600040450CD319EB02095F4121B9404502D131
:101A70009F4329EA0209BBEB175F00D0761C208840
:101A8000000502D57B48784402E07A48784419384A
:101A900008AA302302F80A30037C0AF10101002E63
:101AA0000AF1020A53546A4602DC4FF0300101E0A9
:101AB0004FF031014FF001088DF8001002D0A6F26E
:101AC000FF3603E059EA470100D06B4E002D02DCDF
:101AD0002178090704D54FF002082E218DF8011056
:101AE000C44600210BE0C7F303433F01C35C491C1C
:101AF0006D1E02F80830052908F1010801DA002DF1
:101B0000F1DC00210CE000EB1973491C1B786D1E01
:101B1000082902F808304FEA091908F1010801DA2A
:101B2000002DF0DC21688B0602D516E0A8F1010833
:101B3000E04505DD02EB080313F8013C302BF5D03E
:101B4000B8F1000F09DD02EB080313F8013C2E2B5E
:101B500003D1090701D4A8F10108002D05DD3E21BC
:101B600002F808106D1E08F10108407C002E02F8F2
:101B7000080008F1010804DA2D20764202F8080076
:101B800002E02B2002F808000A214FF47A70864206
:101B900008F101080BDB96FBF0F3303302F8083054
:101BA00096FBF0F308F1010800FB136601E0642ED8
:101BB0000CDB642096FBF0F3303302F8083096FB20
:101BC000F0F308F1010800FB136601E00A2E06DBC2
:101BD00096FBF1F0303002F8080008F1010896FB9E
:101BE000F1F001FB1060303002F80800A16908F143
:101BF000010808EB050202EB0A00081AA061207830
:101C0000C00602D42046FEF76DFC216A08AE01EB47
:101C10000A00206204E0D4E9012116F8010B904784
:101C2000BAF1010AF7D22078C00602D52046FEF7A5
:101C300059FC6E4609E016F8010B3E280FD0D4E996
:101C400001219047206A401C2062B8F10108F2D2BD
:101C50002046FEF75DFC09B00320BDE8F08F206A46
:101C60002844206203E0D4E90121302090476D1E12
:101C7000EBD3F8E7995A010002FCFFFF10B5436966
:101C800013B1AFF3008001E0FEF7DEFF012010BDCD
:101C9000128800F1240182840022C2840122EDE72F
:101CA00011684FF0FF32E9E72DE9F34F4FF0000ADA
:101CB0000C4656468DB001200C9001F10C000B90A3
:101CC00062690B9801219047051E2DD0252D2CD03F
:101CD000216A8847C0B162690B9801219047216A47
:101CE00088470028F7D16269411E0B98904700E0B1
:101CF000761CA1690D988847216A88470028F7D18A
:101D0000E1690D988847DBE7A1690D988847A842EB
:101D1000074601D1761CD3E7E1690D9888477F1CFF
:101D200002D1BAF1000F6FD06CE162690B98002705
:101D30003D46394690472A2804D162690B98012113
:101D400090470125DFF8D08262690B980121904706
:101D5000A0F130010A290AD24745E5DC07EB8701EB
:101D600000EB4107303FDFD445F01005ECE7E90612
:101D700001D46FF000476C280AD04C2814D0682892
:101D800015D06A280DD074281CD07A281AD01DE0EE
:101D900062690B98012190476C2802D045F0040538
:101DA00014E045F002050DE045F020050AE0626907
:101DB0000B9801219047682802D045F0080505E0FE
:101DC00045F4006562690B9801219047C4E9015709
:101DD00065283DD019DC58287AD00CDC452837D04E
:101DE00004DC252826D041289ED131E046282FD07A
:101DF000472899D12CE05B2877D0612828D0632828
:101E00007CD0642823D15AE0F7E06F2848D008DC62
:101E100066281DD067281BD0692821D06E2816D1CE
:101E200027E0702845D0732868D0752847D07828D7
:101E30000DD14DE0A1690D988847252805463FF44E
:101E400069AFE1690D9888476D1C3FF46AAFD9E02E
:101E50000D9923466A466FF0010015F0C6F8C6E0FA
:101E600045F0400023464FF000026060A80736D4DA
:101E70003EE0E8077FF447AF2068011D216000685D
:101E8000290501D506701BE7290701D5068017E74C
:101E9000A90703D5F117C0E9006111E706600FE754
:101EA00045F0400023464FF008026060A80716D4B2
:101EB0001EE040F60E0125EA0100606016E045F0E4
:101EC000400023464FF00A026060A80707D40FE0E5
:101ED00045F040006060A80708D5234610220D9900
:101EE0006FF00100AFF3008081E007E0102223468D
:101EF0000D996FF00100FEF727FC78E04FF0000924
:101F000063284F46C8464B46CB4602D05B2807D0D5
:101F100039E02079C00601D40120A060012732E019
:101F20006269D4F80CB00B98012190475E2807D164
:101F30004FF0010949466269D4F80CB00B989047FC
:101F4000216939B900210A4603AB43F82120491C15
:101F50000829FADBD8B3216949B308F1010862699D
:101F60000B98012190475D28F4D1B9F1000F09D0F9
:101F7000002003A951F82020D24341F82020401C22
:101F80000828F7DB03AB2069002820794FEA40706E
:101F90001ED05B462246CDF80080CDE901970D9911
:101FA00000286FF0010020DAAFF300801FE0C117B6
:101FB00003AA00EBD1614B1121F01F0102EB830258
:101FC000411A13680120884003431360C7E719E0F2
:101FD0000D99224600286FF00100009702DAAFF356
:101FE000008004E0FEF756FC01E0AFF3008000281B
:101FF0000ADA401C06D10C9820B14FF0FF300FB028
:10200000BDE8F08F5046FAE7E90701D10AF1010A6D
:10201000064400200C9053E6CCCCCC0C2DE9F047C4
:10202000814616468AB0354878440DC88DE80D00C3
:1020300032487844801C03AC0DC884E80D0041F69A
:102040009B300844372190FBF1F290FBF1F5A5F1AC
:10205000800501FB12041B3C02D56442012000E014
:102060000020DFF898A080460027FA44AAF1BE0AB3
:102070000EE0E0070AD03246684607EB470101232D
:102080000AEB810100F004FE8DE8070064107F1C5C
:10209000002CEED1194F7F44AE3F19E0E80715D070
:1020A00007EB04100DF1180A90E80E008AE80E0004
:1020B000C068F04201D1981908903246012306A960
:1020C00003A800F0E5FD03AB83E807006D10641C76
:1020D000002DE3D14FF0010332466946B8F1000FFD
:1020E00003A802D000F0AAFD01E000F0D1FDC9E98B
:1020F0000001C9F808200AB0BDE8F0878855010042
:1021000070B516460C46054600F044F8036893F88F
:102110000101012806D0FF2C0FD8185D68B10120FD
:102120002C7070BDD3F807013246214603F2071325
:1021300003442846BDE8704018474FF0FF3070BD9B
:1021400000487047C43307247546FFF7F9FFAE46D1
:1021500005006946534620F00700854618B020B5B3
:10216000FEF77EF9BDE820404FF000064FF0000773
:102170004FF000084FF0000B21F00701AC46ACE82F
:10218000C009ACE8C009ACE8C009ACE8C0098D469C
:102190007047000010B5FFF735F9001D10BD00BFF6
:1021A000994B01002DE9F0411F46044603260168C2
:1021B000072A01F4006004DB08B116A505E016A5A6
:1021C00003E008B115A500E015A521F0100020607E
:1021D000A069C01EA0610FB1401EA0612046FEF79D
:1021E00081F94FB1D4E9012138469047206A401C5B
:1021F0002062C01C206206E0206AFAE7D4E90121CF
:1022000015F8010B9047761EF8D22046FEF780F9AC
:10221000BDE8F0814E414E006E616E00494E4600B1
:10222000696E66002DE9FF4F1F464FF03C0987B0ED
:102230004FF00042DDE9141001F10108DDF858A06B
:1022400002EA40500390002005908346054604466C
:102250000490B969461E08988847AAF1010A0290BD
:10226000BAF1000F3BDD02982E2815D01021FEF7A1
:1022700009FE00282EDB4FF0010B0599014317D012
:10228000B9F1000F0BDB4A46C11700F0FEF9054318
:102290000C43A9F1040905E0012004900BE008B10A
:1022A00045F0010501200590049820B9361D02E093
:1022B000049800B1361FB969089808F101088847E9
:1022C000BBF1000FAAF1010A0290C9D00999C1F827
:1022D0000080C5E70298702808D0502806D0F96918
:1022E00008988847BBF1000F14D04FE000200290FF
:1022F0000120BBF1000F049009D0B969089808F1DA
:1023000001088847AAF10109B9F1000F07DCF96952
:10231000089888476FF001000BB0BDE8F08F2B28BC
:1023200004D02D280CD14FF0FF300490B9690898E3
:1023300008F101088847A9F10109B9F1000FE6DDAC
:10234000411CE4D00A21FEF79DFD0028DFDB029945
:1023500008F1010801EB810100EB41000290B9692D
:10236000089888470A21FEF78DFD099AA9F101090D
:10237000B9F1000FC2F8008001DD0028E7DAF96941
:10238000089888470499029800FB016655EA040002
:1023900004D004F04041090002D006E0039898E020
:1023A000A40044EA9574AD00B61E04F00041080094
:1023B00002D16D196441761E159810F0240F03D0D8
:1023C0004FF00B095C4803E04FF028096FF07D00E7
:1023D0008246564507DAAAEB06018944B9F1410F56
:1023E00001DD4FF0410901200021A9F1010200F0B7
:1023F0004CF9024628400B462140084301D00121F8
:1024000000E00021501E029143F1FF31284021409D
:10241000084301D0012000E000200299834651EAE0
:102420000B014FD0002108464FF00000039900F443
:10243000400039B100EB80004FF4400100EBD07058
:1024400001EA60008015012802DD4FF0FF3000E056
:1024500013D0401C36D0029860B3BBF1000F0CD1F2
:102460004A460120002100F010F92840214008438D
:1024700001D0012000E00020E0B101204A46002107
:1024800000F003F9034640190A4661412D1A8C41B8
:1024900011D3B9F1400F09DD159810F0240F02D0C7
:1024A000AAF1340603E0AAF1170600E0761C002525
:1024B0004FF0004406E05B1E42F1FF3220EA0305C4
:1024C00021EA0204CAF10100B04206DA1B4903986E
:1024D00008430190002000900EE0039AC4F3D3213A
:1024E000E80A0A43164940EA44500A433146CDE916
:1024F0000002684613F020FC159810F0240F0BD052
:102500001598C00715D13868DDE90012031D3B603E
:102510000068C0E900120CE002A8694613F056FBFF
:102520001598C00705D13868029A011D3960006806
:1025300002604046F0E6000002FCFFFF0000F07F72
:102540000000F03F2DE9FF4F92461D4685B04FF049
:102550000041DDE9124BDDE914727F1E01EA4B50A8
:10256000414940F0FF4940EA0108002122F02000E3
:102570004928049102D04E2828D04CE03BA00126E7
:1025800007C88DE80700A9690698641C88477F1E64
:10259000014606D41DF8060018B121F02001814241
:1025A0000BD0E96906988847032E34D0082E32D024
:1025B0006FF0010009B0BDE8F08F761C032E01D04A
:1025C000082EE0D1601CCAF80000DCE7A969069873
:1025D000641C88477F1E2AD420F02000412826D181
:1025E000A9690698641C88477F1E20D420F020002B
:1025F0004E281CD1A9690698641C88477F1E48F4A0
:10260000002849F48009CAF8004001D4282806D0DF
:10261000E969069888475FEACB7012D022E0A96981
:102620000698641C88477F1E01D4002803DAE969F4
:1026300006988847BCE72928F1D1641CCAF80040F5
:10264000E9E71BF0240F07D028680499031D2B60CD
:102650000068C0E9001805E02868021D2A600068CB
:10266000C0F800902046A5E70000F07F494E46499B
:102670004E4954590000000010B50446AFF30080E5
:102680002046BDE81040FDF7D4BEB2F120030AD5C4
:10269000C2F1200301FA02F120FA03F300FA02F07A
:1026A00041EA0301704700FA03F14FF00000704760
:1026B00001491820ABBEFEE72600020070475FEA22
:1026C000400C08BF91F0000F4FEA8C234FEAC12263
:1026D00043EA51514FEA1C5018BF00F5F0404FEA51
:1026E000300018BF41F000415FEA6C5C00F02980C7
:1026F000BCF1FF3F08BF40F080407047130C06BF9D
:1027000012044FF0100C4FF0000C130E04BF120215
:102710000CF1080C130F04BF12010CF1040C930F01
:1027200004BF92000CF1020CD30F04BF52000CF155
:10273000010C11464FF00002A0F11F00A0EB0C00AD
:10274000704711F0004F08BF704731F000413FF46F
:10275000D5AF0B0C06BF09044FF0100C4FF0000C66
:102760000B0E04BF09020CF1080C0B0F04BF09018A
:102770000CF1040C8B0F04BF89000CF1020CCB0F81
:1027800004BF49000CF1010CCCF12003A0EB0C00BC
:1027900022FA03F302FA0CF241EA030100F101000C
:1027A000704720F07F4C80EA030023F07F47ACEBBA
:1027B000070303F57C5300F0004003F1FF032DE90C
:1027C00080494FEA154B09B44FEA144325EA0B4EF2
:1027D00024EA03480FF2042606EB132749083E7843
:1027E0005FEA320203FB0667C7F5000707FB06F640
:1027F0004FEA54374FEAD64606F1020607FB066C4D
:10280000CCF1005C4FEA1C472CEA074C07FB06F4AE
:102810000CFB06F504EB15464FEA961634BF002074
:102820004FF000404FEAD13706FB07FC4FEA1C4C43
:102830000CFB0BF7D21B03FB0CF761EB07010CFB46
:102840000EF7B0EB074072EB17420CFB08F734BFF2
:10285000A2EB0742B2EB074261EB17414FEA0C448F
:102860004FEA910706FB07FC4FEA1C4C0CFB0BF7E9
:10287000B0EBC74072EB573203FB0CF734BFA2EB4F
:10288000C742B2EBC74261EB57310CFB0EF7B0EB1E
:10289000C70072EB57720CFB08F734BFA2EBC702FC
:1028A000B2EBC70261EB5771039F4FEA816141EAC6
:1028B000921104EBCC044FEAD1374FEA826206FB57
:1028C00007FC42EA90124FEA80604FEA1C4C0CFB76
:1028D0000BF7D21B03FB0CF761EB07010CFB0EF7A8
:1028E000B0EB074072EB17420CFB08F734BFA2EBCA
:1028F0000742B2EB074261EB17414FEA8C554FEAB2
:10290000910704EB9C2406FB07FC4FEA1C4C0CFBD4
:102910000BF7B0EBC74072EB573203FB0CF734BF39
:10292000A2EBC742B2EBC74261EB57310CFB0EF78B
:10293000B0EBC70072EB57720CFB08F734BFA2EB89
:10294000C702B2EBC70261EB577115EB4C254FEA9A
:10295000816141EA92114FEA82624FEAD13742EA3D
:10296000901206FB07FC44F100044FEA80604FEA36
:102970001C4C0CFB0BF7D21B03FB0CF761EB0701A4
:102980000CFB0EF7B0EB074072EB17420CFB08F79D
:1029900034BFA2EB0742B2EB074261EB174115EBE4
:1029A0001C154FEA813141EA92414FEA823242EAF4
:1029B00090424FEA80304FEA0C7644F1000448EA36
:1029C00003434EEA0B484FF0000EB2EB080C71EBDC
:1029D000030724BF624639464EEB0E0E4FF0000B44
:1029E0000018524149414BEB0B0BB2EB080C71EB59
:1029F00003077BF1000B24BF624639464EEB0E0EF7
:102A00004FF0000B0018524149414BEB0B0BB2EB5E
:102A1000080C71EB03077BF1000B24BF62463946BB
:102A20004EEB0E0E51EA020718BF46F0010616EBF8
:102A30000E7655F1000254F1000103D5BDE889017D
:102A4000BDE80088BDE88901BDE80048B6195241DB
:102A500041EB0101A3F10103704780807F7E7D7C03
:102A60007B7A7978777676757473727171706F6E20
:102A70006E6D6C6C6B6A6A696868676666656464CB
:102A8000636362616160605F5F5E5E5D5D5C5C5B55
:102A90005B5A5A59595858575756565555555454C4
:102AA000535352525251515050504F4F4F4E4E4D22
:102AB0004D4D4C4C4C4B4B4B4A4A4A49494948486E
:102AC00048474747474646464545454444444443AE
:102AD00043434342424242414141000046EA0646E6
:102AE000A3F570534FEA164646EA42564FEAD22201
:102AF00042EA415210B54FEAD121A3F1010300F09F
:102B00002FF820F0004000F1020C00F0004701EB2C
:102B100000501146BCF5006F40EA070000D210BD1E
:102B2000BAF1000F0AD01CB503B44FF004004FF007
:102B300004014FF000000FBCBDE810404FF0000151
:102B4000BBF1010FB9BF04484FF0FF31034800212A
:102B500040EA070010BD00BFFFFFEF7F0000F07FDD
:102B6000002B9C4630D477002BD01CB54FEA37079A
:102B700003B44FF010004FF01001BAF1000F06D06F
:102B8000BCF1000FDCBF40F0080040F008014FF03E
:102B900000000FBCBDE810400BF1010BBBF1010FB1
:102BA00008BF5FEA170722BF12F1010211F101010C
:102BB0004FF0004143F1000300F0004043EA000001
:102BC0007047F9D35708D0E746EA064613F1400F9D
:102BD0004FEA16461FDD13F1200FDFBF16430A46EA
:102BE000002120335B42BED0C3F1200746EA0646EF
:102BF00002FA07F74FEA164646EA0706C3F120072E
:102C000022FA03F201FA07F721FA03F14FF0000369
:102C100042EA0702A7E746EA020646EA06464FEA04
:102C2000164646EA0106BCBF46EA0646360C4FF099
:102C300000034FF000024FF0000194E72DE9804CB3
:102C40009A46934670B491E8380007C831EA400CC0
:102C500048BF34EA430C03D5FFF7A3FDFFF780FF1D
:102C6000F0BCBDE8008C2DE9804C9A46934670B4C8
:102C700091E8380007C831EA400C48BF34EA430CF9
:102C800003D5FFF78EFDFFF729FFF0BCBDE8008CF0
:102C90002DE9804C9A46934670B491E8380007C8F5
:102CA00010F0804F08BF13F0804F03D100F01AF8E6
:102CB000FFF756FFF0BCBDE8008C2DE9804C9A462A
:102CC000934670B491E8380007C810F0804F08BFF1
:102CD00013F0804F03D100F005F8FFF7FFFEF0BCC2
:102CE000BDE8008C20F07F4780EA030023F07F4C92
:102CF00007EB0C03A3F57C5300F00040A3F1FE03A7
:102D000092F0000F00F0B38095F0000F00F0778094
:102D10002DE901494FEA11404FEA144621EA0048E3
:102D200000FB06FC24EA064708FB06F607FB08F84A
:102D300000FB07F718EB06484CEB164C4FEA124B1A
:102D400018EB07484FEA15464CEB174022EA0B4EAA
:102D50000BFB06FC25EA06470EFB06F607FB0EFEFC
:102D60000BFB07F71EEB064E4CEB164C4FF0000624
:102D70001EEB074E4CEB174B18EB0B0840F1000015
:102D800018EB0E0B58EB000840F100008F1A4FF0C3
:102D900000013CBFC943661B14BFB5EB040C002106
:102DA0003CBFC943F61B4FEA17444EEA8E0E27EA92
:102DB00004454FEA1C4704FB07622CEA074C05FB5D
:102DC00007F70CFB05F604FB0CFC16EB074642EB81
:102DD000174216EB0C4642EB1C421BEB060658EB67
:102DE0000202414146EA9E0601D5BDE80189B619B5
:102DF000524141EB0101A3F10103BDE801894FEA12
:102E000014454FEA114724EA054621EA074C05FB21
:102E100007F406FB07F70CFB06F105FB0CFC11EBB6
:102E2000074144EB17444FEA124711EB0C4144EBC6
:102E30001C4422EA074C05FB07F206FB07F70CFBD4
:102E400006F605FB0CFC16EB074642EB174216EBA9
:102E50000C4642EB1C456A1854F1000148BF70470C
:102E6000B619524141EB0101A3F10103704795F0FE
:102E7000000F37D04FEA11424FEA144721EA0246C9
:102E800024EA074C02FB07F106FB07F70CFB06F4EC
:102E900002FB0CFC14EB074441EB17414FEA1547CA
:102EA00014EB0C4441EB1C4125EA074C02FB07F5EF
:102EB00006FB07F70CFB06F602FB0CFC16EB0746BD
:102EC00045EB174516EB0C4645EB1C42121951F128
:102ED000000148BF7047B619524141EB0101A3F10F
:102EE000010370474FEA14454FEA114724EA0546AB
:102EF00021EA074C05FB07F106FB07F70CFB06F27E
:102F00004FF0000605FB0CFC12EB074241EB1741AA
:102F100012EB0C4251EB1C4148BF7047921841EB39
:102F20000101A3F1010370472DE9F8430446002590
:102F300000260027FD48B0F90080FC482030B0F999
:102F40000090A9EB080000EE100AB8EEC00ADFED11
:102F5000F80A80EE801AF74880ED0D1AC9EB0910C7
:102F6000400008EBC801C1EB8811A0EB410000EE66
:102F7000100AF8EEC00AA9EB080000EE100AB8EE3D
:102F8000C00A80EE801AEB4880ED0E1AEA4800680D
:102F900040F02500E849086000E000BFE64800680E
:102FA00000F001000028F8D000E000BFE24800680F
:102FB00000F004000428F8D100E000BFDE480068FB
:102FC00000F020002028F8D10321DC4800F0E8FBC5
:102FD0000421DA4800F0E4FB0321D94800F0E0FBCB
:102FE0000821D74800F0DCFB0921D54800F0D8FBC8
:102FF0000A21D34800F0D4FB022C0AD0032C11D1B3
:103000000421CF4800F0CCFB0721CE4800F0C8FBDC
:1030100000BF0521CA4800F0C3FB0521C74800F0E6
:10302000BFFB00BF00BFC4480838006840F0200064
:10303000C1490839086000E000BFBF48083800688F
:1030400000F020002028F7D1BB48006840F08070D5
:10305000B949086000E000BFB748006800F0807020
:10306000B0F1807FF7D1B848006820F44030B7490C
:10307000C1F80803B648D0F8080320F44030B4493A
:10308000C1F80803B148806840F48070AF49886097
:103090000846D0F8080140F48070C1F80801AC4837
:1030A000806840F48070AA498860A848806820F051
:1030B0000050A64988600846D0F8080120F000506A
:1030C000C1F80801A248806820F00050A04988603B
:1030D0009E48806840F080509C4988600846D0F83F
:1030E000080140F08050C1F808019948806840F01C
:1030F0008050974988600020009003E000BF00984E
:10310000401C009049F6404100988842F6DB8F4809
:10311000806820F001008D4988608E48006820F0AA
:103120000100C1F808018A48806820F00100884940
:1031300088608648806820F080408449886008461E
:10314000806840F4803088600846806840F0004025
:10315000886000E000BF7D48806800F000400028E3
:10316000F8D1009003E000BF0098401C009049F6A1
:10317000404100988842F6DB7448806840F00100C6
:103180007249886000E000BF7048006800F00100EC
:103190000028F8D0012C04D0022C06D0032C0ED12C
:1031A00008E010206949C86109E04FF48870674958
:1031B000C86104E04FF4C8706449C86100BF00BF33
:1031C00065486249486188619C26601E00F00300E2
:1031D0000643624806430846C06820F01C00C860E9
:1031E0000846C06840F00800C8600846C664C06869
:1031F00040F08A50C86088155649683908608020B8
:103200005249C1F8A4000846806840F00800886070
:103210004F48806820F080404D49886008468068AB
:1032200040F4803088600846806840F00040886044
:1032300000E000BF4648806800F000400028F8D158
:10324000009003E000BF0098401C009049F6404108
:1032500000988842F6DB3E48806840F001003C4917
:10326000886000E000BF3A48006800F001000028D4
:10327000F8D0012C04D0022C06D0032C0DD107E08D
:1032800037483349C86108E036483149C86104E02D
:10329000344810302E49C86100BF00BF6FF0404075
:1032A0002B49486188613048006840F40000C1F84B
:1032B000080325F00F05201D00F00F0005432B48E3
:1032C0000543084605632A48486327F01C0747F072
:1032D000080742F2030007430846C06842F20301B0
:1032E00008431B49C8600846C06820F01C00C8603D
:1032F0000846C06840F00800C8600F4808380068F9
:1033000040F002000C490839086000E000BF0A489C
:103310000838006800F002000228F7D1154800685C
:1033200020F001001349086027E0000020E8F11FA9
:103330000000A04438000024E0440258000802586D
:1033400000140258000002580823024000200240E6
:103350000060025808210240B66DDB360008E40028
:10336000E6000400E60204000863025880700406C8
:10337000529110001004024000BF1648006800F08F
:1033800001000028F8D11448124908310860134898
:10339000091D0860601D0F49091D0860104800687C
:1033A00040F073000E4908600A48006840F4AA40E3
:1033B000084908600846006840F0010008600648B7
:1033C0004038806840F00400034940398860BDE817
:1033D000F88300001004024040600258F8500624B0
:1033E0002008024002480068C0F3C0107047000087
:1033F0000020024002480068C0F30020704700002F
:103400000020024002480068C0F3402070470000DE
:10341000002002400348006840F080000149086035
:1034200070470000002002400348006840F48070AC
:10343000014908607047000000200240034800680E
:1034400040F400700149086070470000002002400D
:10345000014601EB4100064B53F82000008882B280
:1034600040F2FF70824201DA7D2070470020FCE7C5
:103470003800002410B52DED028BB0EE408A9FED90
:103480000B0A28EE000A10EE101A084613F072FC20
:1034900080F30C000001064948620846006840F0CD
:1034A00080000860BDEC028B10BD000000F07F457D
:1034B0000020024010B52DED028BB0EE408A9FED4A
:1034C0000C0A28EE000A10EE101A084613F052FCFF
:1034D00080F30C000001074908600648B438006812
:1034E00040F480700349B4390860BDEC028B10BD14
:1034F00000F07F45B420024010B52DED028BB0EEF8
:10350000408A9FED0C0A28EE000A10EE101A0846B9
:1035100013F030FC80F30C000001074908600648F6
:10352000BC38006840F400700349BC390860BDEC49
:10353000028B10BD00F07F45BC20024070B5002911
:103540000CDB07290ADC046A8E000F25B540AC436A
:103550008D0002FA05F52C43046213E0082910DB04
:103560000F290EDC446AA1F10805AE000F25B54015
:10357000AC43A1F10805AD0002FA05F52C43446205
:1035800000E070BDC4684E000325B540AC43C46084
:1035900003F0010434B1C4684E000125B5402C434A
:1035A000C46008E003F002042CB1C4684E00022598
:1035B000B5402C43C46003F4807424B144680125F1
:1035C0008D402C43446084684E000325B540AC43D5
:1035D000846003F480642CB184684E000325B540F8
:1035E0002C43846004684E000125B540AC43046060
:1035F00004684E000225B5402C43046000BFC0E7BC
:1036000030B5D0E902456319C4681444C46003E0CE
:1036100011F8014B03F8014B141EA2F10102F7D17E
:1036200030BD00000FB42DE9F04186B005460EA86C
:103630000590E8B28DF8040001208DF80500BDF872
:10364000340002900020039048A00490BDF834009C
:1036500081283FD1059810C80590059880C805902D
:1036600000200290212D21DB232D1FDCA5F1210854
:1036700008EB880000EBC8013D4800EBC100406941
:10368000A04226D0B4F5004F07D0812002900394C9
:103690000497394637A000F055FC08EB880000EB92
:1036A000C801334800EBC100446112E0304844389F
:1036B000406AA0420DD0B4F5004F07D0812002909F
:1036C0000394049739462BA000F03CFC284844386A
:1036D000446200BF00BF00200590254844380069BF
:1036E00002283ED122484438806A21494439496B36
:1036F000884213D1264A01A9002002F08FF806461D
:10370000012E2ED12248426801682248FFF778FF37
:103710001F490868022101F073F922E01448443877
:10372000806A13494439C96A884207D0104844382E
:10373000806A0F494439896B884212D1164A01A91F
:10374000002002F06BF80646012E0AD112484268AA
:1037500001681248FFF754FF0F490868042101F07F
:103760004FF906B0BDE8F0015DF814FB0000000061
:103770009C3B05240D0A415054206E6F74696669A4
:10378000636174696F6E3A2025732E0D0A00000084
:103790006C010024A401002464010024940100248D
:1037A00010B502684C000323A3401A430260C268AC
:1037B0004C000323A3409A43C26010BD2DE9F041A1
:1037C00006460C4626B1012E05D0022E09D105E091
:1037D00000273C4D08E001273B4D05E002273B4D0B
:1037E00002E00120BDE8F08100BF394850F8260012
:1037F000D0F8048008F1A00036490860002009686C
:1038000048603548334909688860002131480068BC
:10381000016100202F490968C8602068022804D08F
:10382000032803D0042806D101E000BF00BF3846BA
:103830000FF0D6FE00BF00BFE068022802D00328C8
:103840003CD11DE0022023490968486021480068F6
:103850000660204800688560206908B9012000E002
:1038600000201C490968C8601A4821690068016184
:10387000216909B9012100E000210846A8471DE09F
:103880000120144909684860124800680660114820
:1038900000688560206908B9012000E000200D491A
:1038A0000968C8600B48216900680161216909B98C
:1038B000012100E000210846A84700BF00BF00200A
:1038C00090E700000939000831390008593900082B
:1038D00030FD06241C000024AD4C000810B500206B
:1038E00001F090FBC0F3001010BD10B5002001F0F6
:1038F00089FBC0F3401010BD10B5002001F082FB21
:10390000C0F3801010BD000010B504460CB10121B9
:1039100000E000210548006861F38A20034908603F
:1039200008460168032001F0DDFB10BD38020024C9
:1039300010B504460CB1012100E0002105480068E3
:1039400061F3CB200349086008460168032001F0B9
:10395000C9FB10BD3802002410B504460CB101218A
:1039600000E000210548006861F30C30034908605D
:1039700008460168032001F0B5FB10BD38020024A1
:103980002DE9FE4F81468A4600200290CAF80000C9
:10399000B9F1000F06D0B9F1010F08D0B9F1020F4B
:1039A0000FD109E0E7480190E74800900CE0E748B4
:1039B0000190E748009007E0E6480190E648009053
:1039C00002E00120029000BF00BF0298012801D14F
:1039D000BDE8FE8FE14800EB492844464146684671
:1039E00000F0C0FF0290029808B90220F0E72078AA
:1039F000252801D00320EBE76078C0F1000B0025FB
:103A000003E018F8050083446D1CB5F5007FF8DB72
:103A10000BF0FF016078814201D00420D8E7608874
:103A2000FCF70EFD60806068FCF70AFD6060A0682E
:103A3000FCF706FDA060E068FCF702FDE06020698D
:103A4000FCF7FEFC20616069FCF7FAFC6061A0698C
:103A5000FCF7F6FCA061E069FCF7F2FCE061206A8B
:103A6000FCF7EEFC2062606AFCF7EAFC6062A06A88
:103A7000FCF7E6FCA062E06AFCF7E2FCE062206C86
:103A8000FCF7DEFC2064606CFCF7DAFC6064A06C80
:103A9000FCF7D6FCA064E06CFCF7D2FCE064206D7F
:103AA000FCF7CEFC2065606DFCF7CAFC6065B4F8DD
:103AB0005800FCF7C5FC81B204F14400A4F858108A
:103AC000B4F85A00FCF7BCFC81B204F14400A4F83D
:103AD0005A10B4F85C00FCF7B3FC81B204F1440066
:103AE000A4F85C10D4F85E00FCF7AAFCC4F85E00F1
:103AF000B4F86200FCF7A4FC81B204F14400A4F81D
:103B00006210B4F86400FCF79BFCA4F86400B4F9FC
:103B10006600FCF795FC01B204F14400A4F86610BD
:103B2000B4F96800FCF78CFC01B204F14400A4F87D
:103B30006810B4F96A00FCF783FC01B204F1440098
:103B4000A4F86A10B4F86C00FCF77AFC81B204F1B6
:103B50004400A4F86C10B4F96E00FCF771FC01B2DB
:103B600004F14400A4F86E10B4F97000FCF768FC8E
:103B700001B204F14400A4F87010B4F87200FCF72C
:103B80005FFC81B204F14400A4F87210B4F974002F
:103B9000FCF756FC01B204F14400A4F87410D4F808
:103BA0007600FCF74DFCC4F87600B4F97A00FCF717
:103BB00047FC01B204F14400A4F87A1000250EE09D
:103BC00004F17C0101EB4501B1F90000FCF738FC80
:103BD00001B204F17C0000EB450001806D1C0D2D4D
:103BE000EEDB00250EE004F1960101EB4501B1F991
:103BF0000000FCF725FC01B204F1960000EB450043
:103C000001806D1C022DEEDB00250EE004F19A010F
:103C100001EB4501B1F90000FCF712FC01B204F11F
:103C20009A0000EB450001806D1C022DEEDBB4F91B
:103C30009E00FCF705FC01B204F14400A4F89E10BC
:103C4000B4F9A000FCF7FCFB01B204F14400A4F8B5
:103C5000A010B4F9A200FCF7F3FB01B204F1440098
:103C6000A4F8A21000250EE004F1A40101EB450127
:103C7000B1F90000FCF7E4FB01B204F1A40000EB91
:103C8000450001806D1C042DEEDB98F8AC7098F8AF
:103C9000AD6094F8AD0067F3000084F8AD007908DA
:103CA00094F8AD0061F3420084F8AD00F90894F88F
:103CB000AD0061F3C40084F8AD00790994F8AD005B
:103CC00061F3451084F8AD00B90994F8AD0061F3D3
:103CD000871084F8AD0094F8AC0066F3000084F817
:103CE000AC00710894F8AC0061F3420084F8AC00B9
:103CF000F10894F8AC0061F3C30084F8AC0031091A
:103D000094F8AC0061F3051084F8AC00B10994F8A4
:103D1000AC0061F3861084F8AC00F10994F8AC00B3
:103D200061F3C71084F8AC00B4F8B000FCF788FB6E
:103D300081B204F14400A4F8B010CAF80040002099
:103D400046E6000021CD000831CD000849CD00082D
:103D50005DCD000871CD000881CD00084C350524EB
:103D60002DE9F04106460F46154627B1012F04D034
:103D7000022F16D113E0002413E035B1012D06D037
:103D8000022D06D0032D08D105E0052405E001240D
:103D900003E0022401E0032400BF00BF01E0062489
:103DA00000BF00BF012E04D0022E09D0032E15D172
:103DB0000DE01548006864F39850134908600DE061
:103DC0001148006864F35B600F49086006E00E4824
:103DD000006864F31E700C49086000BF00BF0A4809
:103DE0000168032001F07EF93A46314607A000F051
:103DF000A9F81DB911A000F0A5F803E0294612A00A
:103E000000F0A0F8BDE8F081380200240D0A5365E7
:103E10007420424E43206E756D62657220256420C9
:103E2000746F204D6F64652025642C20636F6E7461
:103E3000726F6C6C6564206279200000736F667429
:103E400077617265000000006D6F746F72206368A7
:103E5000616E6E656C2025640000000030B505467B
:103E6000802901D9012030BD2C46064A002304E0F8
:103E700012F8010B04F8010B5B1C8B42F8D30020F5
:103E8000F1E700005040005870B50546802901D97F
:103E9000012070BD0D48006840F480700B4E30600A
:103EA000CA200B4E7062532070622B46084A503273
:103EB000002404E013F8010B02F8010B641C8C428F
:103EC000F8D3FF20024E70620020E2E7004802585B
:103ED000004000580146074850F8210082684FF41E
:103EE0008A70805820B9D2F8100108B901207047B3
:103EF0000020FCE7704D05240146074850F82100DA
:103F000082684FF48070805820B9D2F8FC0008B95C
:103F1000012070470020FCE7704D0524014908602E
:103F2000704700000C02002410B500E000BF0449F7
:103F30000968886880470028F8D000F093F810BD21
:103F40000C0200240FB438B505A800900F48006893
:103F500040F6FF71884213D20C4A1268C2F58052B3
:103F6000511E0B4A1268094B1B68D018009B049A1B
:103F7000FCF788FA044605480068204403490860B5
:103F800000200090204638BC5DF814FB1402002489
:103F9000100200242DE9F04105460E4600272B486B
:103FA000006808B92A48056037E0082C04D00A2CBC
:103FB00014D00D2C17D110E02448006860B125A062
:103FC000FFF7C0FF21480068401E204908602048D4
:103FD0000068401E1E4908601EE000BF0127002047
:103FE0001A49086018E019480068B04213D21A490B
:103FF0000C700846017819A0FFF7A4FF144909685E
:104000000C7013480068401C114908600F48006894
:10401000401C0E49086000BF00BF114909680868CC
:1040200080470446B0F5807FBFD16FB100200849BA
:104030000968087006480068401C05490860084681
:104040000068401BBDE8F0810020FBE71802002457
:104050001C02002408200800200200242563000020
:104060000C02002410B50F480068D0B10E49096851
:1040700088688047A8B10C48006842680948016810
:104080000A4800689047094800680949884202D1F7
:1040900001F5805000E0064804490860002001490D
:1040A000086010BD140200240C0200241002002439
:1040B000BCFD06240F48006840F001000D4908606F
:1040C0000C480830006840F000500A490831086088
:1040D0000948006840F47060074908600846C068F5
:1040E00020F47060C8600548006840F00110034982
:1040F00008607047E0440258000002580074004015
:1041000010B50124FE48006840F08050FC4908606A
:10411000FB481038006840F00E00F949103908607B
:1041200000E000BFF6481038006800F002000228E6
:10413000F7D100E000BFF2481038006800F004003A
:104140000428F7D100E000BFED481038006800F007
:1041500008000828F7D1012306220021E948FFF7CB
:10416000EDF9012303221946E648FFF7E7F94FF47A
:10417000806306220221E348FFF7E0F94FF48063F1
:1041800003220A21E048FFF7D9F9012306220C2176
:10419000DE48FFF7D3F9012306220E21DB48FFF7A3
:1041A000CDF94FF4806303221146D748FFF7C6F9D3
:1041B000012303220B21D348FFF7C0F90123032277
:1041C0001946D148FFF7BAF9CD48A038006820F069
:1041D0008070CB49A03908600020CD49086000E01C
:1041E000641C601CCB49B1FBF0F0CB498842F7D886
:1041F000C74800684FF47F0101EA04410843C449FD
:1042000008600846006820F00C0008600846006856
:1042100040F0040008600846006820F003000860D1
:104220000846006840F00100086000204860084629
:10423000006840F080000860002008620846006ABC
:104240004FF47F0101EA04410843B149086208467E
:10425000006A20F00C0008620846006A40F0040082
:1042600008620846006A20F0030008620846006AF7
:1042700040F001000862002048620846006A40F0F1
:1042800080000862002008640846006C4FF47F013B
:1042900001EA044108439E4908640846006C20F086
:1042A0000C0008640846006C40F0040008640846EE
:1042B000006C20F0030008640846006C40F0010028
:1042C0000864002048640846006C40F080000864E0
:1042D00000208F49803108608D48D0F880004FF46D
:1042E0007F0101EA044108438949C1F8800008467A
:1042F000D0F8800020F00C00C1F880000846D0F80B
:10430000800040F00400C1F880000846D0F880002A
:1043100020F00300C1F880000846D0F8800040F08B
:1043200001007B498031086000207949C1F8840090
:104330000846D0F8800040F0800075498031086060
:1043400000207349C1F8A0000846D0F8A0004FF43F
:104350007F0101EA044108436D49C1F8A000084605
:10436000D0F8A00020F00C00C1F8A0000846D0F85A
:10437000A00040F00400C1F8A0000846D0F8A0005A
:1043800020F00300C1F8A0000846D0F8A00040F0DB
:1043900001005F49A031086000205D49C1F8A40018
:1043A0000846D0F8A00040F080005949A0310860CC
:1043B00000205749C1F8C0000846D0F8C0004FF4AB
:1043C0007F0101EA044108435149C1F8C000084691
:1043D000D0F8C00020F00C00C1F8C0000846D0F8AA
:1043E000C00040F00400C1F8C0000846D0F8C0008A
:1043F00020F00300C1F8C0000846D0F8C00040F02B
:1044000001004349C031086000204149C1F8C4009F
:104410000846D0F8C00040F080003D49C031086037
:1044200001203E49086010203C498031086020206E
:104430003B49086040203A49803108603948374993
:10444000091D086036497C3908603549091D086036
:104450003349843108600020334908602C48D0F883
:10446000000140F486402A49C1F800010846D0F80E
:10447000800140F48640C1F880010846D0F800026F
:1044800040F48A40C1F800020846D0F8800240F4A7
:104490008A40C1F880020846D0F8000140F00100CF
:1044A000C1F800010846D0F8800140F00100C1F8D1
:1044B00080010846D0F8000240F00100C1F8000277
:1044C0000846D0F8800240F00100C1F8800208469A
:1044D000D0F8040140F00100C1F8040101216E2070
:1044E00008F0B8FA0A48D0F8040240F00100084980
:1044F000C1F804020121702008F0ACFA044815E06C
:10450000F044025800080258000C025800040258F7
:104510000070014000E1F505002D310110710140EE
:104520001072014000003F60C0000024006840F0AD
:10453000004003490860601C0249B1FBF0F010BD67
:104540000070014000E1F50510B52DED028B7A48B1
:10455000006800287AD179480068401C77490860D3
:104560007749096821F0FF00C11700EB5151C912CA
:1045700008EE101AB8EEC80ADFED720A20EE200A23
:10458000714880ED000A7149D1F8981121F0FF00BF
:10459000C11700EB5151C91208EE101AB8EEC80A43
:1045A000DFED680A20EE200A674880ED010A01204D
:1045B000614908606548D0F8000120F001006349B6
:1045C000C1F800010846D0F8800120F001005C49E4
:1045D0006831086002205A490839086004205B49A4
:1045E000C1F890010846D0F8000120F4F850C1F855
:1045F00000010846D0F8800120F4F850C1F880018D
:104600000846D0F8000140F48070C1F80001084667
:10461000D0F8800140F48070C1F880010846D0F8DD
:10462000000140F00100C1F800010846D0F8800107
:1046300040F00100424968310860454C206800287C
:1046400077D0D4E90010884773E0FFE73C49096858
:1046500021F0FF00C11700EB5151C91208EE101AEA
:10466000B8EEC80ADFED370A20EE200A364880EDA2
:10467000020A3649D1F8981121F0FF00C11700EB6A
:104680005151C91208EE101AB8EEC80ADFED2D0A12
:1046900020EE200A2C4880ED030A002026490860FD
:1046A0002A48D0F8000120F001002849C1F8000193
:1046B0000846D0F8800120F00100214968310860E7
:1046C00001201F490839086010202049C1F89001D5
:1046D0000846D0F8000120F4F850C1F8000108465F
:1046E000D0F8800120F4F850C1F880010846D0F8D5
:1046F000000140F44070C1F800010846D0F8800184
:1047000040F44070C1F880010846D0F8000140F044
:104710000100C1F800010846D0F8800140F0010016
:10472000C1F880010A4C0834206810B1D4E90010A7
:104730008847BDEC028B10BDC0000024C4000024DB
:1047400018710140000000B8485106240070014073
:104750001851062410B52DED028B1849096821F077
:10476000FF00C11700EB5151C91208EE101AB8EE44
:10477000C80ADFED130A20EE200A124880ED040A71
:104780001149D1F8981221F0FF00C11700EB5151E7
:10479000C91208EE101AB8EEC80ADFED090A20EEB9
:1047A000200A084880ED050A084C206810B1D4E9B9
:1047B00000108847BDEC028B10BD0000187201404C
:1047C000000000B84851062400700140285106241A
:1047D0000849096891ED000A80ED000A0549496819
:1047E00091ED000A80ED010A9FED030A80ED020AB7
:1047F00070470000C80000249A99993F08498968C9
:1048000091ED000A80ED000A0549C96891ED000AA2
:1048100080ED010A9FED030A80ED020A7047000057
:10482000C80000249A99993F0849096991ED000A46
:1048300080ED000A0549496991ED000A80ED010A01
:104840009FED030A80ED020A70470000C8000024B3
:104850009A99993F704770477047000028B1064900
:10486000064A1160091F516005E00349091F034A08
:104870001160091D516070474C510624C800002486
:1048800028B10649064A9160091FD16005E0034935
:10489000091F034A9160091DD160704754510624D5
:1048A000C800002428B10649064A1161091F516158
:1048B00005E00349091F034A1161091D5161704751
:1048C0005C510624C800002470B504460E46154607
:1048D0006E2008F06FF8702008F06CF8064840F879
:1048E000346000EBC4004560702008F092F86E2040
:1048F00008F08FF870BD00001851062402480068C7
:10490000C0F34F0070470000C400002410B51149E7
:104910000968491C0F4A116001210F4A11600F49B3
:10492000096889B10D490968884720B14FF00061D5
:104930000B4A11600CE00A495031096821F010015E
:10494000074A5032116003E04FF00061044A1160E1
:1049500010BD00004C020024440200244802002440
:10496000080402402DE9F04105460E461C4928681E
:1049700008601C496868086072B601201849096817
:104980008847002405E04FF47A7017490968884782
:10499000641C642CF7DB08F031F9B8B10127CC2096
:1049A00008F07CF9F02008F079F9002008F076F999
:1049B000002008F073F9002404E008F00FF906F86D
:1049C000010B641CB4F5007FF7DB00E0002700203A
:1049D00003490968884762B63846BDE8F08100009F
:1049E0000C000024100000241400002408B102214F
:1049F00001E04FF40031014A116070471814025869
:104A00002DE9F047064689460024308887B2B9F17F
:104A1000070F77D2DFE809F076334C041D626C0093
:104A20004FA55348C069022801D1012000E00020B1
:104A300004434F48C069012808D140F292408742A0
:104A400004D0B7F5926F01D0012000E000200443AC
:104A500058E048A54648006A022801D1012000E03C
:104A6000002004434248006A012805D140F29140E9
:104A7000874201D0012000E00020044342E041A52C
:104A80003B48C069022801D1012000E00020044316
:104A90003748C069012808D140F29240874204D0CB
:104AA000B7F5926F01D0012000E00020044329E017
:104AB00038A52F48006A022801D1012000E000201B
:104AC00004432B48006A012805D140F291408742F7
:104AD00001D0012000E00020044313E031A5244868
:104AE000C069032801D1012000E00020044309E04F
:104AF00030A51F48006A032801D1012000E00020F2
:104B0000044300BF00BF012C27D12846FFF71AFA43
:104B1000307900F0800028B1B078F178220212FBE1
:104B2000010000E0002000F1060A4FF0000806E056
:104B300016F8081023A0FFF705FA08F10108D04580
:104B400002DAB8F1400FF3DBBAF1400F02DB1FA02D
:104B5000FFF7F8F91EA0FFF7F5F9BDE8F0870000B0
:104B60001B5B33346D0D0A5553422052783A2000B6
:104B7000BC2107241B5B33326D0D0A555342205470
:104B8000783A20001B5B33356D0D0A45746820525E
:104B9000783A20001B5B33366D0D0A45746820544B
:104BA000783A20001B5B33336D0D0A4C434420528E
:104BB000783A20001B5B33316D0D0A4C434420547E
:104BC000783A200025303258200000002E2E2E008A
:104BD0001B5B33306D00000070B504460DF002FC25
:104BE000054600E000BF0DF0FDFB064629460DF02E
:104BF000F5FBA042F6DB70BD10B500221146104651
:104C0000FFF762FE10BD10B5002211460120FFF72C
:104C10005BFE10BD10B5002202490220FFF754FED2
:104C200010BD0000BD4E000810B504464FF0807066
:104C300009498861012C02D14FF4FA6100E0052195
:104C40000846FFF7C9FF4FF480700349886164206C
:104C5000FFF7C2FF10BD00000000025810B50F485A
:104C60000068D0B10E49096888688047A8B10C482F
:104C700000684268094801680A4800689047094886
:104C800000680949884202D101F5806000E00648C9
:104C90000449086000200149086010BDE034052483
:104CA000D8340524DC3405241C27072470477047BA
:104CB00002460020704710B500F0E2FA84B242F2DA
:104CC0001F40844201D1204610BD0020FCE70000B7
:104CD0002DE9FF4F81B00E46144601200090DDF80B
:104CE00004903019B0F5042F03D3012005B0BDE8BE
:104CF000F08F0CB90020F9E7A2464FF48470B6FBA0
:104D0000F0F736E03946224800F0E0FA00BF09F03B
:104D1000E7FE0546042D01D0002DF8DC042D01D05E
:104D20000220E3E7BAF5847F01D2504601E04FF458
:104D3000847083464FF0000816E0049828B91448A0
:104D400010F8080009F8010B0CE0009840B119F8C0
:104D5000011B0F4810F80800814201D1012000E03A
:104D60000020009008F10108D845E6D3AAEB0B0A11
:104D70007F1C30194FF48471B0FBF1F0B842C1D2FE
:104D80000098012801D00120B0E70020AEE7000024
:104D9000300000382DE9F74F0E4615467019B0F572
:104DA000042F02D30220BDE8FE8F0DB90120FAE7DF
:104DB000DDF800A0A8464FF48470B6FBF0F73BE0A6
:104DC000B8F5847F01D2404601E04FF484708346F9
:104DD000B8F5847F10D239461C4800F077FA00BF3E
:104DE00009F07EFE0446042C01D0002CF8DC042CD3
:104DF00002D04FF0FF30D6E74FF0000906E01AF876
:104E0000010B124901F8090009F10109D945F6D34E
:104E1000A8EB0B0839460D4800F068FA00BF09F00E
:104E2000B9FE04460C2C01D0002CF8DC0C2C02D06E
:104E30004FF0FF30B7E77F1C70194FF48471B0FB5F
:104E4000F1F0B842BCD20120ADE7000030000038DC
:104E50000648006840F001004FF0B041C1F88800FA
:104E600003480068401C02490860704788000058E9
:104E70002801002410B50348034902680020FFF709
:104E800023FD10BD704D0524091B010810B5034812
:104E9000034942680120FFF717FD10BD704D05243E
:104EA000091B010810B50348034982680220FFF777
:104EB0000BFD10BD704D0524091B010810B50446FB
:104EC0000DF04CFE10BD000010B504464FF48020DC
:104ED00008490860012C02D14FF4FA6100E0052175
:104EE0000846FFF779FE0420024908606420FFF7B6
:104EF00073FE10BD181402580446214603A0FFF7A4
:104F000021F801E0FFF7AEF8FCE700000D0A457854
:104F100069742077697468206572726F723A20250F
:104F20007300000010B50E48006840F010000C49F6
:104F3000086000E000BF0A48006800F01000102878
:104F4000F8D102020321074800F094FB002201215E
:104F5000044800F08FFB04490868804710BD00003A
:104F6000E0440258001002583C74010870B5FFF785
:104F7000D9FF012000F04EF80220FFF72DFE00209F
:104F800000F048F80A20FFF727FE00F033F808B1D8
:104F9000012070BD144C1548066800BF4FF6FF7025
:104FA000844201DA204601E04FF6FF700546AAB2BE
:104FB0000F48002143683046984700E000BF0C4985
:104FC000886880470028F9D0641B06EB4506002C52
:104FD000E4DC0A20FFF700FE00F00CF808B901201D
:104FE000D7E70020D5E700003E990200D034052421
:104FF0003C74010802480069C0F34000704700009B
:10500000001002580146024850F821007047000085
:10501000FC22072408B1082101E04FF40021014AD5
:10502000916170470010025870B52248006800EB8B
:105030004000214901EB8004204A2168A06842F821
:1050400021001D48D0F8C800002801DD012000E043
:105050000020054665B31848D0F8C400154908601B
:105060001548D0F8C410D0F8C400401C124AC2F849
:10507000C40001EB4100114601EB8004206800F000
:1050800021F80F48022204F108014368201D9847C7
:105090000948D0F8C400102803DB00200649C1F8F5
:1050A000C4000548D0F8C800401E0349C1F8C80034
:1050B000284670BD4002002430220724FC22072429
:1050C0003C7401084FF4604101EA4031C2434FF0A3
:1050D000604303EA42721143014A116070470000C5
:1050E00018080258FEB504460D46002000900190B5
:1050F0000290009401951649086980471548D0F838
:10510000C010D0F8C000401C124AC2F8C00001EB29
:105110004100114601EB80009DE80E000EC00D48D5
:10512000D0F8C000102803DB00200A49C1F8C000F5
:105130000848D0F8C800401C0649C1F8C80008F06B
:1051400047FC06460249C86880473046FEBD00005D
:105150003C7401083022072410B50446044948690C
:105160008047001B022801D3012010BD0020FCE76E
:105170003C74010870B501253548006840F0020014
:10518000334908600023012208213248FEF7D6F98E
:105190002F481030006840F400302D49103108606D
:1051A00000E000BF2A481030006800F40030B0F57D
:1051B000003FF6D1284C012000EB1445681E27491A
:1051C0000880B4FBF5F0401E091D08600846006821
:1051D0002349088021481038006840F060001F49CA
:1051E000103908600846006840F0080008601C4953
:1051F000088800EBD0714910184A0C32116017482A
:105200000838006840F00100144908390860134864
:105210001C30006840F4004010491C3108600F4801
:105220002838008840F060000C49283908800B4875
:105230001438006840F00100084914390860074834
:105240002838008840F0010004492839088070BDE2
:10525000E04402580004025800350C002844014084
:105260000000002404490988414340F28F22514341
:10527000090C024A116070470000002434440140C8
:1052800010B5002008F00AFF9F200F490870012286
:1052900000210D4808F096FE00E000BF08F070FD08
:1052A0000028FAD004220849002008F08BFE00E014
:1052B00000BF08F065FD0028FAD0012008F0EEFEDE
:1052C0000148006810BD000014000038044A106056
:1052D0004A00044B1A600022034B1A60704700001A
:1052E000040000380800003800000038044A10604C
:1052F0004A00044B1A600022034B1A6070470000FA
:1053000010000038080000380C0000382DE9F0418A
:1053100098B005460F4605EB850000EBC5011D481A
:1053200000EBC108D8F80400012802D018B0BDE88D
:10533000F081194850F825004468174850F82500B6
:105340000668606F00B9F1E7E06B042802D0E06BFB
:1053500000B1EBE7A06E012800D0E7E70420E0638E
:1053600000200B900C970D90B06E0E90F06E0F9089
:105370000AA0124B0C9A0F991B68984728220EA975
:105380006846FBF74EFB28460BA90EC907F062FAE8
:1053900000BFCBE79C3B052430FD06240D0A4B6E75
:1053A0006F62206D6F76652C2056656C203D202540
:1053B000642C20506F73203D2025640004020024DB
:1053C0002DE9F04397B007468846B8F1000F02D1A7
:1053D00017B0BDE8F08307EB870000EBC701224858
:1053E00000EBC109D9F80400012800D0F0E71F48FC
:1053F00050F8270045681D4850F827000468686F7A
:1054000000B9E5E7E86B042802D0E86B00B1DFE7FC
:105410000420E863B8F1000F07DD2968606E0E18FC
:105420006068B04208DA666806E02968606E0E1AA5
:10543000A068B04200DDA6680021C9F84410002031
:105440000A900B960C90A06E0D90E06E0E902822A4
:105450000DA96846FBF7E5FA38460AA90EC907F018
:10546000F9F900BFB4E700009C3B052430FD062499
:105470002DE9F04198B006460C4606EB860000EB9D
:10548000C601434800EBC108D8F80400012802D047
:1054900018B0BDE8F0813F4850F8260045683D4807
:1054A00050F826000768686F00B9F1E7E86B042838
:1054B00002D0E86B00B1EBE75CB9A86F012865D1B9
:1054C00035A03949096888470321304607F064FA56
:1054D0005CE0386840B30420E86301200B90002CA6
:1054E00001DD800701E04FF040400C9000200D905E
:1054F000B86E0E90201E01DA414200E00146F86EBF
:10550000C00941430F9129A0274B0C9A0F991B68A2
:10551000984728220EA96846FBF783FA30460BA964
:105520000EC907F097F931E0A86E01282ED10420AA
:10553000E86300200B90002C05DD164850F826008B
:105540000068406804E0134850F82600006880684E
:105550000C9000200D90B86E0E90201E01DA414292
:1055600000E00146F86EC00941430F910FA00E4BB9
:105570000C9A0F991B68984728220EA96846FBF7DA
:1055800050FA30460BA90EC907F064F900BF7FE757
:105590009C3B052430FD06240D0A4B6E6F62207380
:1055A000746F702E00000000040200240D0A4B6E80
:1055B0006F62206D6F76652C2056656C203D20252E
:1055C000642C20506F73203D20256400044800683F
:1055D00040F480504FF0B041C1F88800704700009F
:1055E0008800005802480068012121EA1030704705
:1055F0001014025802480068C0F3003070470000E1
:10560000880000580448006840F004004FF0B041A2
:10561000C1F8880070470000880000580248006800
:10562000012121EA900070471018025802480068D2
:10563000C0F38000704700008800005804480068EC
:1056400040F400404FF0B041C1F8880070470000BE
:105650008800005802480068012121EAD0307047D4
:105660001018025802480068C0F3C03070470000AC
:105670008800005830B502F48053FBB903684D0030
:105680000324AC40A3430360C3684D000324AC4033
:10569000A343C36002F0010333B1C3684D0001248A
:1056A000AC402343C36036E002F002039BB3C368FF
:1056B0004D000224AC402343C3602CE002F400738D
:1056C00013B101238B4002E04FF480338B408361A0
:1056D00002F4807323B1436801248C402343436068
:1056E00083684D000324AC40A343836002F48063CD
:1056F0002BB183684D000324AC40234383600368CF
:105700004D000224AC40A343036003684D00012414
:10571000AC402343036030BD0EB5F0EE401A0628BE
:1057200040D2DFE800F0030C17202B349FED210A54
:105730008DED000ACDED011ACDED021A32E09FED9C
:105740001D0A8DED000A9FED1B0A8DED010ACDEDBE
:10575000021A27E0CDED001A9FED160A8DED010A21
:10576000CDED021A1EE0CDED001A9FED120A8DED6F
:10577000010A9FED100A8DED020A13E0CDED001A2B
:10578000CDED011A9FED0B0A8DED020A0AE09FEDA7
:10579000090A8DED000ACDED011A9FED060A8DED87
:1057A000020A00BF00BF9DED000ADDED010A9DED7C
:1057B000021A0EBD0000000070B505460626002442
:1057C0000CE0094800EBC40041682846FBF7D2F81A
:1057D00018B1054850F8346002E0641C062CF0DB78
:1057E00000BF304670BD00003470010810B503469C
:1057F0000020022A06D0032A02D0042A0BD100E09E
:1058000000BF00BF012901D1012B02D011B95C1CDE
:1058100004B9104600E000BF00BF10BD07B5AEB030
:10582000309800682B9030980068801D2A902E9840
:10583000E0B12E9800682D902E980068008880B204
:1058400029902E980068801D2C902E980068407931
:105850001B902E980068007900F07F001A902B9919
:105860001B9808712B991A98487115E02F9898B1D8
:1058700000202D902C902F98808880B229902F980E
:1058800041782B9801712F9801782B984171002055
:105890001B902F9800781A9000212B98C17000203F
:1058A0002090309841601A98112840F0B9862998C4
:1058B000B0F50A7F7DD020DC152800F08E860DDC47
:1058C000052877D005DC012842D0022840F0A686C2
:1058D00061E112286FD01428F8D1F1E360286BD071
:1058E00004DC40283FD05028F0D129E0A0F223204A
:1058F00000287DD00328E9D1FDE040F24352811A0F
:10590000904276D011DCB0F5197F73D006DCA0F29E
:10591000292000286FD03A28D8D1FDE3A0F25340C7
:10592000002869D01228D1D1F7E301297ED0A1F255
:10593000BD4100297BD003297AD00629C6D1FBE3DB
:105940002C980188FE48C160FEA0FEF7FBFA69E3CF
:1059500001212B98018000212B9881702B98C17018
:1059600001202090F3E700201F900AE01F992C9857
:10597000425CFB48006800F5E67042541F98401CEA
:105980001F901F980428F1DB99212E98006801715F
:105990002E98406809902E9801680891F148099A5C
:1059A000FDF72EFE2E98006806210990FFF728F8D3
:1059B00003E078E021E0D9E048E0EBA0FEF7C2FA8E
:1059C00000201F900DE0E648006800F5E6701F9982
:1059D000405C01460990EAA0FEF7B4FA1F98401C0B
:1059E0001F901F980428EEDBE6A0FEF7ABFAAEE7A7
:1059F00099E0F1E0EFE36EE01AE206212B980180D6
:105A000054212B9881702B98007940F080012B98BD
:105A100001715422DD492A98FAF7BEFFDC4801687B
:105A20002A980160C648808881B202E04AE126E3F4
:105A3000F9E22A98A0F8521001212A98A0F84E10F5
:105A4000012020900221BE48016180E761212B984E
:105A500001802D9880782690269820B1012803D0C7
:105A6000022814D101E000BF00BF269800EB80019E
:105A700001EBC001B248443000EBC100C06D012809
:105A800001D1012100E002212B98C17003E0022125
:105A90002B98C17000BF00BF2698C1B22B988170AF
:105AA0000120209053E72D988078AD490968C1F80E
:105AB000DC01AB48006890F8DC11B648006861F37F
:105AC0000300B449086008460068014609900320B5
:105AD000FFF708FB3BE74FF40C712B980180A048BF
